:10000000021FCA008F828E83E0540100000070F846
:100010002278FFE4F6D8FD0220280203DBE86480A2
:10002000F8E933E83360110460F0ED33EC33700924
:10003000E8FCE9FDEAFEEBFF220460DED3EB9FEA79
:100040009EE99DE8C2E78CF0C2F795F0400CE8CC41
:10005000F8E9CDF9EACEFAEBCFFB1203A685D0F092
:100060005804700320D5B3E80470075002B2D502DB
:1000700003E592D5EC0460F7E4CCC0E0C398F860E7
:100080003B94186008400DD0E0FB0203BDE4FBFA8E
:10009000C9FC8028E830E406E4C9FBE4CAFCE83087
:1000A000E305E4C9CACBFCE854076010F8C3E913C0
:1000B000F9EA13FAEB13FBEC13FCD8F130F52FC37C
:1000C000E49CFCEF9BFFEE9AFEED99FDD0E0FBEF88
:1000D0004E4D4C701222DB030203E2EC2CFCEF339A
:1000E000FFEE33FEED33FDED30E7EB0203BDEF2B0A
:1000F000FFEE3AFEED39FDD0E0FB50130BBB0003E1
:100100000203E5ED13FDEE13FEEF13FFEC13FC020B
:1001100003BDEC4D6011E8497017ED33EC3304601A
:100120000DE4FCFFFEFD22E933E8330470F802031E
:10013000DB1203A658046009E4CC24815006285041
:10014000090203E52840030203E2C0E0EB4A7044E1
:10015000B98006D0E0FB0203D1EF4E701CBD8008D1
:10016000EBFFEAFEE9FD80EBE98DF0A4FEE5F0028D
:1001700001FBE9CDF9EAFEEBFFEF89F0A4FCE5F025
:10018000CE89F0A42EFFE435F0CD89F0A42DFEE455
:1001900035F08067EF4E7005BD80D780C3EF8BF0E0
:1001A000A4ACF0EE8BF0A42CFCE435F0F8EF8AF070
:1001B000A42CE5F038FCE433CB8DF0A42CFCE5F066
:1001C0003BF8EE8AF0A42CFCE5F038F8E433CF8954
:1001D000F0A42CFCE5F038CF3400CE89F0A42FFF3A
:1001E000E5F03EFEE433C98DF0A42EFEE5F039CDF6
:1001F0008AF0A42FFFE5F03EFEE43DFD33D0E0FBA6
:1002000050070BBB000F0203E5EC2CFCEF33FFEEB5
:1002100033FEED33FD0203BD0203E5EC5D04600532
:10022000E8590470030203DB1203A6580460F6ECDD
:100230004860F2EC7004FDFEFF22C860DB2481C838
:100240005009C398600250060203E29850CAF58232
:10025000E9294B4A7005AB820203D175F0007C1A84
:100260007880C3EF9BEE9AED99400DC3EF9BFFEEB4
:100270009AFEED99FDE842F0DC23ACF0D0E0FFD02F
:10028000E0FED0E0FDAB8220E7101BEB60BAEC2C67
:10029000FCEF33FFEE33FEED33FD0203BDE803F860
:1002A00030E705C0F075F000EF2FFFEE33FEED33C1
:1002B000FD40B830E7C280AA74F8CC6480CCC86432
:1002C00080C8F58204604FC3EB9FF5F0EA9E42F0D0
:1002D000E99D42F0E89C45F0603C501DE5825FFFDF
:1002E000E582D313CB5BCBF42B5582FB50280ABAA3
:1002F000002409B9002008801DE5825BFBE582D35C
:1003000013CF5FCFF4C3132F5582FF50090EBE00E9
:10031000050DBD00010CC3EB9FF5F0EA9E42F0E92C
:100320009D42F0E89C45F06007CC4820E701B3EC23
:100330002275F020800E75F010800575F0087D00A4
:100340007E007F003392D530D5031207BCEC3340DA
:1003500010EF33FFEE33FEED33FDEC33FCD5F0ED63
:1003600022E5F0247EA2D513CC92E7CDCEFF22ED7C
:10037000D2E7CD33EC3392D524814006E4FFFEFD75
:10038000FC22FCE4CFCECDCC24E0501174FF80EDF4
:10039000C3CC13CCCD13CDCE13CECF13CF0470F07E
:1003A00030D5DE0207BCE9D2E7C933E833F892D58D
:1003B000EDD2E7CD33EC33FC5002B2D522EC30E77E
:1003C000100FBF000C0EBE00080DBD00040BEB604B
:1003D00014A2D5EB13FCED92E7FD2274FFFCFDFEA9
:1003E000FF22E480F8A2D574FF13FC7D80E480EF47
:1003F000F920E73624F950037907E4F42402FBE5F9
:1004000082158270021583DBF6E024FB501BE96045
:1004100014E4F0E582158270021583E004F0B40A5A
:1004200008E4F0D9EE7401F00A22C2D522ED33ECD3
:100430003392D5FA602AB4FF33EDC2E77BFF600642
:100440007A047952E4227A04795B20D5047A04791B
:1004500056224E614E002B494E46002D494E460015
:10046000E47A08F0A3DAFC7B00740722C083C08220
:10047000ECC0E0EDC0E0EEC0E0EFC0E0EA75F010E7
:10048000A4CAABF075F04DA42BFBE435F0FCEA24D4
:1004900010FAEB34C5FBEC34D9FCEDC2E7FF75F084
:1004A00056A4F42411C5F0F434C58FF0A42AE5F065
:1004B0003BE43CF020E714120562D0E0FFD0E0FE00
:1004C000D0E0FDD0E0FC12021B8014F4041205629F
:1004D000D0E0FFD0E0FED0E0FDD0E0FC120112D071
:1004E00082D083E0FAEDD2E7CD33EC332482FBE413
:1004F000C3CF33CFCE33CECD33CD33DBF37B0775D4
:10050000F00A846004F0A31B0AE5F0F0A38FF074F6
:100510000AA4FFACF08EF0740AA42CFEACF05001DB
:100520000C8DF0740AA42CFDE435F0F0A3DBDE742E
:1005300007223F8000004120000042C80000447AAA
:100540000000461C400047C35000497424004B186B
:1005500096804CBEBC205A0E1BCA6753C21C749DA9
:10056000C5AEFB60065407601C2323120590EB54B4
:1005700038600912057C12058B120112ECF8EDF9B6
:10058000EEFAEFCB22EB12058B80F1543803241CDA
:10059000900532FE93FC0EEE93FD0EEE930ECE937D
:1005A000FF22BB010689828A83E0225002E722BB38
:1005B000FE02E32289828A83E49322BB010CE58256
:1005C00029F582E5833AF583E0225006E92582F891
:1005D000E622BBFE06E92582F8E222E58229F582C1
:1005E000E5833AF583E49322BB010689828A83F08E
:1005F000225002F722BBFE01F322EF8DF0A4A8F0F7
:10060000CF8CF0A428CE8DF0A42EFE22BC000BBE11
:100610000029EF8DF084FFADF022E4CCF875F008EE
:10062000EF2FFFEE33FEEC33FCEE9DEC984005FC23
:10063000EE9DFE0FD5F0E9E4CEFD22EDF8F5F0EEEB
:100640008420D21CFEADF075F008EF2FFFED33FDD6
:100650004007985006D5F0F222C398FD0FD5F0EA76
:1006600022C5F0F8A3E028F0C5F0F8E58215827005
:10067000021583E038F022EF2BFFEE3AFEED39FD54
:10068000EC38FC22C3EF9BFFEE9AFEED99FDEC984F
:10069000FC22E88FF0A4CC8BF0A42CFCE98EF0A413
:1006A0002CFC8AF0EDA42CFCEA8EF0A4CDA8F08BF3
:1006B000F0A42DCC3825F0FDE98FF0A42CCD35F039
:1006C000FCEB8EF0A4FEA9F0EB8FF0A4CFC5F02ECA
:1006D000CD39FEE43CFCEAA42DCE35F0FDE43CFC33
:1006E0002275F008758200EF2FFFEE33FECD33CD7B
:1006F000CC33CCC58233C5829BED9AEC99E58298C8
:10070000400CF582EE9BFEED9AFDEC99FC0FD5F0C6
:10071000D6E4CEFBE4CDFAE4CCF9A88222B800C13D
:10072000B90059BA002DEC8BF084CFCECDFCE5F0AA
:10073000CBF97818EF2FFFEE33FEED33FDEC33FCF1
:10074000EB33FB10D703994004EB99FB0FD8E5E49A
:10075000F9FA227818EF2FFFEE33FEED33FDEC337C
:10076000FCC933C910D7059BE99A4007EC9BFCE90B
:100770009AF90FD8E0E4C9FAE4CCFB2275F010EF47
:100780002FFFEE33FEED33FDCC33CCC833C810D78A
:10079000079BEC9AE899400AED9BFDEC9AFCE899DE
:1007A000F80FD5F0DAE4CDFBE4CCFAE4C8F922EF97
:1007B0004BFFEE4AFEED49FDEC48FC22C3E49FFFEF
:1007C000E49EFEE49DFDE49CFC22EB9FF5F0EA9E96
:1007D00042F0E99D42F0E89C45F022E8600FEFC34B
:1007E00033FFEE33FEED33FDEC33FCD8F122E0FCB9
:1007F000A3E0FDA3E0FEA3E0FF22E0F8A3E0F9A35D
:10080000E0FAA3E0FB22ECF0A3EDF0A3EEF0A3EFFF
:10081000F022E0FBA3E0FAA3E0F922F8E0FBA3A3B7
:10082000E0F925F0F0E582158270021583E0FA38D0
:10083000F022EBF0A3EAF0A3E9F022E493FB7401C9
:1008400093FA740293F922D083D082F8E493701261
:10085000740193700DA3A393F8740193F5828883B8
:10086000E4737402936860EFA3A3A380DFE50E2511
:1008700082F582E50D3583F583B50D0485820E2260
:1008800010AF0685820EF50D2285820EF50DD2AFD2
:1008900022EC8EF0A4CCC5F0CCCDF8EFA4CEC5F000
:1008A0002DFDE43CFCE8A42EC8C5F03DFDE43CFC75
:1008B000EFA4FFE5F028FEE43DFDE43CFC22E7095F
:1008C000F608DFFA8046E709F208DFFA803E888200
:1008D0008C83E709F0A3DFFA8032E309F608DFFA38
:1008E000806EE309F208DFFA806688828C83E30970
:1008F000F0A3DFFA805A89828A83E0A3F608DFFA40
:10090000804E89828A83E0A3F208DFFA804280D297
:1009100080FA80C680D4805580F28029801080A61D
:1009200080EA809A80A880DA80E280CA8029888460
:100930008C8589828A83E493A30586F0A30586DFEC
:10094000F5DEF3800B89828A83E493A3F608DFF94E
:10095000ECFAA9F0EDFB2288848C8589828A83E0F9
:10096000A30586F0A30586DFF6DEF480E389828A9C
:1009700083E493A3F208DFF980D688F0EF60010EDC
:100980004E60CD88F0ED2402B4040050C3F582EB34
:100990002402B4040050B9232345822390090E7326
:1009A000E508244EF582E43400F583E00508229042
:1009B000004B30070390004EE475F00112081B0253
:1009C00005A22000E97F2ED2008018EF540F24905A
:1009D000D43440D4FF30040BEF24BFB41A005003CA
:1009E0002461FFE50960021509050CE50C7002059C
:1009F0000B30070E90004BE475F00112081BEF025C
:100A000005E8022EF57403D2078003E4C207F50857
:100A100090004B120832E4F509F50BF50CE509607E
:100A2000077F201209E380F5750AFFC201C200C2E8
:100A300002C203C205C206C2081209AFFF700D3020
:100A400007057F001209F4AF0CAE0B22B4255FC27C
:100A5000D5C2041209AFFF24D0B40A00501A75F0B1
:100A60000A780930D50508B6FF0106C6A426F62087
:100A7000D5047002D20380D924CFB41A00EF5004F9
:100A8000C2E5D204020CE6D20180C6D20080C0D2F8
:100A90000280BCD2D580BAD20580B47F201209E38F
:100AA0002002077401B5090040F11209A0FF1209E4
:100AB000E3020A1DD208D20680951209A0FB120992
:100AC000A0FA1209A0F94A4B700679E47A0D7BFF6F
:100AD00020022EE509602A7E008E827583001205B1
:100AE000BB60060EEE650A70F0C2D5EBC0E0EAC04E
:100AF000E0E9C0E0EE120D47D0E0F9D0E0FAD0E036
:100B0000FB1205A2FF60AAEBC0E0EAC0E0E9C0E08A
:100B10001209E3D0E02401F9D0E03400FAD0E0FB80
:100B2000E50A0460DCD50AD98087D20280A2120DC2
:100B30002960F7E50A7001041203F0A90A600DE5C7
:100B40000A600914F50A120DD1EF60F3EA30E702EA
:100B5000F404C3995079EAF4250A0430E701E40467
:100B6000F50A800D120D2960C1EA050A250A120353
:100B7000F0EA90007AF030E701E4250A04D50A048F
:100B800020050114120D47E4C0E0120DD190007A47
:100B9000E0601320E70714F01209CB802204F0D0A4
:100BA000E014C0E07F001209CBE50A60071209C219
:100BB000150A800B3005031209C2D0E0020A1DD0CD
:100BC000E00480C4120D29609EE50A041203F0902F
:100BD000007AEAF0E50A2005026001042404120DFF
:100BE0004774FF04C0E0120DD11209CBE50A2005BD
:100BF0000260031209C2D0E0B50AE87F451209D5A8
:100C000090007AE07F2B30E7047F2DF404C0E012DF
:100C100009E3D0E075F00A84C0F01209CCD0E012EC
:100C200009CC020A1D791080027908C206C2088028
:100C300008D2D5790A8004790AC2D5E50A0470027F
:100C4000F50AE4FAFDFEFF1209A0FC7B082001135F
:100C50001209A0FD7B1030000A1209A0FE1209A0A3
:100C6000FF7B20EC3382D592D55013C3E4300006CD
:100C70009FFFE49EFEE42001039DFDE49CFCE4CB89
:100C8000F8C201EC700CCFCECDCCE824F8F870F3AC
:100C90008017C3EF33FFEE33FEED33FDEC33FCEB97
:100CA00033FB994002FB0FD8E9EB300105F8D0E0A7
:100CB000C448B201C0E00AEC4D4E4F78207B007072
:100CC000C2EAB50A0040BCC0E0120D49D0F0D0E045
:100CD000200104C4C0E0C4B201C0F01209CCD0F0BD
:100CE000D5F0EB020A1D1208470ABA530C25580A20
:100CF0008B4C0A87420C294F0C31440C31490AA015
:100D0000430C37550B64460BC4450B2E470E04505D
:100D10000A8F2D0A932E0AB62B0A97230AB4200DA8
:100D2000ED2A0A4F4800000AAEE50AB4FF03750A2F
:100D3000061209A0FC1209A0FD1209A0FE1209A0CA
:100D4000FF90007302042D790AA2D5200314300508
:100D500009B910020404B9080104A2D52006025002
:100D600001042002689202B509005034C0E07F20DF
:100D70003003197F30A20272067205500F120DA0C7
:100D8000C202C206C205C2087F30800F300503E9E7
:100D9000C0E01209E3300503D0E0F9D0E0B509CC9A
:100DA0003005177F30B9100C1209E37F5830040763
:100DB0007F788003B908031209E33002057F2D0212
:100DC00009E37F202008F87F2B2006F3229202807F
:100DD000CF7F00B40700500B2473F582E43400F594
:100DE00083E0FF22286E756C6C2900D2011209A0E5
:100DF0003001F8C201780930D50108F6020A4F2DFA
:100E0000504349581209A02403B405004001E4905E
:100E10000DFF931209D4743A1209D4D20375090450
:100E2000020C2590004BEFF09000C9E4F09000C454
:100E3000E0FFEF70519058967407F0905897E4F0E7
:100E400090589EE4F0905B07E0FFEF4418FFEFF04E
:100E5000905893E4F0905B88E4F0905B89E4F09024
:100E60005880740AF0905881E4F0905882747AF0B7
:100E7000905883E4F090588DE4F0904E017414F093
:100E8000904E147401F090004BE0FFEF640160039A
:100E9000020F5E904E007438F0904E027404F09091
:100EA0004E037406F0904E04E4F0904E05E4F0908A
:100EB0004E06743FF0904E08E4F0904E09E4F09036
:100EC0004E0AE4F09058847450F0905885740EF0F7
:100ED000905886743EF0905887E4F09058887412C9
:100EE000F09058897413F090588A7444F090588B9D
:100EF0007448F090588C7401F090588EE4F090583B
:100F00008FE4F0905890740AF09058917443F07FF9
:100F100052122BCF9058947458F0905895E4F0905A
:100F2000589A7405F090589B7402F090589C740184
:100F3000F090589DE4F07F001230FE7F337E337DC9
:100F4000007C009000CC1208067D077F041224C8A4
:100F50007C2E7D467F0412242B7F04122382900076
:100F60004BE0FFEF64026003021038904E007438CB
:100F7000F0904E027404F0904E037406F0904E040C
:100F8000E4F0904E05E4F0904E06743FF0904E0869
:100F9000E4F0904E09E4F0904E0AE4F09058847426
:100FA00050F09058857427F0905886742CF0905823
:100FB00087E4F09058887412F09058897413F09078
:100FC000588A7455F090588B745AF090588C740568
:100FD000F090588E7401F090588F7411F0905890E2
:100FE0007419F09058917497F07F44122BCF905859
:100FF000947458F0905895E4F090589A7405F090D5
:10100000589B7402F090589C7401F090589DE4F045
:101010007F001230FE7F007EFA7D007C009000CCC5
:101020001208067D077F041224C87C2E7D477F04AA
:1010300012242B7F0412238290004BE0FFEF640305
:101040006003021112904E007438F0904E02740446
:10105000F0904E037406F0904E04E4F0904E05E4D8
:10106000F0904E06743FF0904E08E4F0904E09E484
:10107000F0904E0AE4F09058847450F090588574C3
:1010800027F0905886742CF0905887E4F090588898
:101090007412F09058897413F090588A7455F09037
:1010A000588B745AF090588C7405F090588E7401D7
:1010B000F090588F7411F09058907419F0905891E6
:1010C0007497F07F44122BCF9058947458F0905836
:1010D00095E4F090589A7405F090589B7402F09043
:1010E000589C7401F090589DE4F07F001230FE7F10
:1010F000007EFA7D007C009000CC1208067D077F00
:10110000041224C87C357DC27F0412242B7F041274
:10111000238290004BE0FFEF640460030211EC9027
:101120004E007438F0904E027404F0904E03740632
:10113000F0904E04E4F0904E05E4F0904E06743FBB
:10114000F0904E08E4F0904E09E4F0904E0AE4F07E
:101150009058847450F09058857427F09058867495
:101160002CF0905887E4F09058887412F0905889C9
:101170007413F090588A7455F090588B745AF0900C
:10118000588C7405F090588E7401F090588F74113B
:10119000F09058907419F09058917497F07F441221
:1011A0002BCF9058947458F0905895E4F090589A3A
:1011B0007405F090589B7402F090589C7401F09064
:1011C000589DE4F07F001230FE7F007EFA7D007CA7
:1011D000009000CC1208067D077F041224C87C35DD
:1011E0007DC37F0412242B7F041223822290004BA4
:1011F000EEF0A3EFF090004DECF0A3EDF090004F77
:10120000EAF0A3EBF07BFF7A3579FCC003C002C0A3
:10121000017B017A007951A801AC02AD03D001D065
:1012200002D0037E007F0812097A900059E4F0A3EF
:10123000E4F090004DE0FEA3E0FF90004BE0FCA343
:10124000E0FDED2FFFEC3EFE90004FE0FCA3E0FD43
:10125000C3EF9DFFEE9CFE900051EEF0A3EFF090E7
:10126000004BE0FEA3E0FFC3E49FFFE49EFE90007E
:101270004DE0FCA3E0FDEF2DFFEE3CFE90004FE0C3
:10128000FCA3E0FDEF2DFFEE3CFEC3E49FFFE49ED8
:10129000FE900053EEF0A3EFF090004BE0FEA3E0D1
:1012A000FFC3E49FFFE49EFE90004DE0FCA3E0FD41
:1012B000EF2DFFEE3CFE90004FE0FCA3E0FDC3EFFE
:1012C0009DFFEE9CFE900055EEF0A3EFF090004DD8
:1012D000E0FEA3E0FF90004BE0FCA3E0FDED2FFF5C
:1012E000EC3EFE90004FE0FCA3E0FDEF2DFFEE3C56
:1012F000FEC3E49FFFE49EFE900057EEF0A3EFF0E4
:1013000090005BE4F0A3E4F090005BE0FEA3E0FF5C
:10131000C3EF9404EE64809480400302145D900057
:101320005BE0FEA3E0FFEF25E0FFEE33FE74512FFC
:10133000F58274003EF583E0FEA3E0FF900059E0E3
:10134000FCA3E0FDD3EF9DEC6480F8EE6480984050
:101350002890005BE0FEA3E0FFEF25E0FFEE33FE08
:1013600074512FF58274003EF583E0FEA3E0FF90F8
:101370000059EEF0A3EFF0806790005BE0FEA3E081
:10138000FFEF25E0FFEE33FE74512FF58274003E2F
:10139000F583E0FEA3E0FFC3E49FFFE49EFE900020
:1013A00059E0FCA3E0FDD3EF9DEC6480F8EE64808F
:1013B00098402D90005BE0FEA3E0FFEF25E0FFEEFC
:1013C00033FE74512FF58274003EF583E0FEA3E0F6
:1013D000FFC3E49FFFE49EFE900059EEF0A3EFF000
:1013E00090005BE0FEA3E0FFEF25E0FFEE33FE742C
:1013F000512FF58274003EF583E0FEA3E0FFC3EFBA
:10140000940AEE64809480504790005BE0FEA3E075
:10141000FFEF25E0FFEE33FE74512FF58274003E9E
:10142000F583E0FEA3E0FFD3EF94F6EE6480947FB3
:10143000401E90005BE0FEA3E0FFEF25E0FFEE33EF
:10144000FE74512FF58274003EF583E4F0A3E4F0BE
:1014500090005BE475F001120661021308900059D8
:10146000E0FEA3E0FFD3EF94F4EE64809481500398
:10147000021558900059E0FCA3E0FDEC1203367B06
:10148000007A0079FA784312021B90005D12080678
:1014900090005BE4F0A3E4F090005BE0FEA3E0FFCB
:1014A000C3EF9404EE6480948040030215589000CA
:1014B0005BE0FEA3E0FFEF25E0FFEE33FE74512F6B
:1014C000F58274003EF583E0FCA3E0FDEC120336E8
:1014D00090005D1207FA12021B12036FAD07AC06F3
:1014E000AC06AD0790005BE0FEA3E0FFEF25E0FF58
:1014F000EE33FE74512FF58274003EF583ECF0A3B9
:10150000EDF090005BE0FEA3E0FFEF25E0FFEE339F
:10151000FE74512FF58274003EF583E0FEA3E0FFD8
:10152000C3EF940CEE6480947E502090005BE0FE4C
:10153000A3E0FFEF25E0FFEE33FE74512FF5827438
:10154000003EF58374FEF0A3740CF090005BE4752C
:10155000F001120661021498900051740175F0F4C4
:10156000120661900053740175F0F4120661900048
:1015700055740175F0F4120661900057740175F00E
:10158000F4120661900051E0FEA3E0FF12319B903F
:101590000053E0FEA3E0FF123133900055E0FEA3BC
:1015A000E0FF1231CF900057E0FEA3E0FF12316759
:1015B00022900006E4F0A3E4F07BFF7A2E7901C0CC
:1015C00003C002C0017B017A007908A801AC02AD1A
:1015D00003D001D002D0037E007F1112097A90005F
:1015E0001974DAF0A374C0F07F007E007D007C00E7
:1015F00090001B1208067F007E007D007C0090009A
:101600001F1208067F007E007D007C0090002312E0
:10161000080612330512341E12335912336E123378
:10162000831230E11235261233AD7E227F2E123026
:101630002E1233C07E227FD812304C1233E67E2821
:101640007FC31230881233D37E2E7FA212306A12EB
:1016500033F97E207FB41230A6D2AF9044F4E0FF7D
:10166000EF54FDFFEFF0900006E0FEA3E0FFC3EFB4
:101670009402EE64809480400302191E7B017A007C
:101680007908C003C002C0017BFF7A2D79DD90008C
:101690004E1208329000D6E0FEA3E0FF900051EE1B
:1016A000F0A3EFF0D001D002D003120A057D007F35
:1016B000001229237B017A0079081229D19000D8E1
:1016C000E0FCA3E0FDEC1203369000271208069020
:1016D00000D0E0FEA3E0FFE4FCFDEF24F8FFEE34D1
:1016E00030FEED34FFFDEC34FFFCEC1203319000D2
:1016F0002B1208069000DAE0FEA3E0FFEF249CFD29
:10170000EE34A0FCEC12033690002F1208067F0086
:101710007E007DF07C4190002F1207FA1202B85033
:10172000237F007E007DF07CC190002F1207FA120B
:1017300002B86010400E7F007E007D007C009000AB
:101740002F1208067F9A7E997D997C3E90002F1279
:1017500007FA12011290003312080690001B1207BC
:10176000EE90002F1207FA12002190001B120806BB
:101770007F007E407D1C7C4690001B1207FA1202FF
:10178000B8601240107F007E407D9C7C4690001B1C
:1017900012080680217F007E407D1C7CC690001BC5
:1017A0001207FA1202B8500E7F007E407D9C7CC664
:1017B00090001B1208067F007E007D007C009000D8
:1017C000371208067F007E007D307C419000271292
:1017D00007FA12011290003B12080690001F120730
:1017E000FA9000271207EE12001D7B007A00794064
:1017F000784012011290003F12080690002712074D
:10180000EE90001F1208067B007A0079F078419074
:10181000002B1207EE12021B7B007A007940784001
:101820001201129000431208069000231207FA904A
:10183000002B1207EE12001D7B007A007920784001
:1018400012011290004712080690002B1207EE902A
:1018500000231208069000D4E0FEA3E0FFD3EF942B
:1018600000EE6480948040030216661235BCEF706F
:10187000030219089000D6E0FEA3E0FFC3EF946ACC
:10188000EE6480947F50161230C47D007F011229CF
:10189000237BFF7A2D79E71229D102166690003F4B
:1018A0001207EE90003B1207FA12002112036FC0DC
:1018B00006C0079000471207EE9000431207FA1285
:1018C000002112036FC3E49FFDE49EFCC004C00529
:1018D0009000371207EE9000331207FA120021121F
:1018E000036FAB07AA06AA06AB07D005D004D00742
:1018F000D0061211ED7D007F011229237BFF7A2D86
:1019000079F41229D10216661230C47D007F0112CB
:1019100029237BFF7A2D79E71229D102166612302E
:10192000C480FE2290004BEFF090004CECF0A3ED51
:10193000F090004EEAF0A3EBF090004BE0FFEF12C6
:101940000847195204197F0719AA0819D50A000077
:101950001A00900050E0FFEFD3940F40117B0C7AF7
:1019600001791812353E900051EFF0021A057B0CF8
:101970007A01791C12353E900051EFF0021A059061
:101980000050E0FFEFD3940F40107B0C7A017919DF
:1019900012353E900051EFF0806B7B0C7A01791D7F
:1019A00012353E900051EFF0805B900050E0FFEF69
:1019B000D3940F40107B0C7A01791A12353E9000B7
:1019C00051EFF080407B0C7A01791E12353E900079
:1019D00051EFF08030900050E0FFEFD3940F4010B3
:1019E0007B0C7A01791B12353E900051EFF0801587
:1019F0007B0C7A01791F12353E900051EFF0800583
:101A0000900051E4F090004BE0FFEF603B90004B02
:101A1000E0FFEF6401603190004BE0FFEF64026093
:101A20002790004BE0FFEF6403601D90004BE0FF48
:101A3000EF6405601390004BE0FFEF6406600990CF
:101A4000004BE0FFEFB4090A900052E4F0A3E4F089
:101A5000801D900051E0FFEF3395E0FEEF7805C365
:101A600033CE33CED8F9FF900052EEF0A3EFF090D2
:101A70000052E0FEA3E0FF90004CE0FCA3E0FDED8F
:101A80002FFFEC3EFE900054EEF0A3EFF090004EDE
:101A9000E0FEA3E0FF900054E0FCA3E0FD120891FB
:101AA0009000561208067B007A807900780090003A
:101AB000561207EE12071D900054EEF0A3EFF090BF
:101AC0000050E0FFEFC3940E5037900054E0FEA3A7
:101AD000E0FF900050E0FDC3740E9DFDEFA80508E7
:101AE0008005CEC313CE13D8F9FF900054EEF0A3B7
:101AF000EFF0900050E0FFEF04FF904E0EEFF0800B
:101B000006904E0E740FF0900054E0FEA3E0FF909C
:101B10004E0CEFF0900054E0FEA3E0FFEEFF7E00DD
:101B2000904E0DEFF0227B007A4679E812353EEFB9
:101B30004405FD7B007A4679E812354A750A00E5CE
:101B40000AC3940A503AAF0AEF75F005A424C4F50D
:101B500082E43435F583AF82AE838E088F09AE08F8
:101B6000AF098F828E8312083BAE08AF098F828E39
:101B700083740393FC740493FD123251050A80BFF1
:101B80007B087A007900122E757B017A5079031256
:101B9000353EEF4402FD7B017A50790312354A7BD2
:101BA000017A50791312353EEF4402FD7B017A50E1
:101BB000791312354A9043A0E0FFEF4440FF904371
:101BC000A0EFF09043C2E0FFEF4410FF9043C2EF5C
:101BD000F07B087A067924C003C002C0017B007A3A
:101BE000517902900012120832D001D002D0037F46
:101BF000087E00122E127B087A06792CC003C002E0
:101C0000C0017B007A517912900012120832D00183
:101C1000D002D0037F087E00122E127B087A06794C
:101C200034C003C002C0017B007A517922900012B7
:101C3000120832D001D002D0037F087E00122E128B
:101C40007B087A06793CC003C002C0017B007A5150
:101C50007932900012120832D001D002D0037F08EE
:101C60007E00122E127B087A067944C003C002C09F
:101C7000017B007A517952900012120832D001D0C3
:101C800002D0037F087E00122E129044F47401F0FB
:101C90009046ECE0FFEFC394055006904689743AF5
:101CA000F090480074F1F0121CE790480074B1F015
:101CB000122A1F7B007A4379A0C003C002C0017BB7
:101CC000007A4379B0900012120832D001D002D0CD
:101CD000037F0E7E00122E129043B0E0FFEF54FD02
:101CE000FF9043B0EFF0227E007F0690000AEEF0F6
:101CF000A3EFF07B007A4079807F027E007D187C24
:101D00000012340C7B007A4079847F177E007D18A6
:101D10007C0012340C7B007A4079887F177E007D2E
:101D2000187C0012340C7B007A40798C7F177E007F
:101D30007D187C0012340C7B007A4079907F177EEE
:101D4000007D187C0012340C7B007A4079947F1758
:101D50007E007D187C0012340C7B007A4079987FDD
:101D6000B77E0B7D197C0012340C7B087A06794C07
:101D7000C003C002C0017B007A41790090001212BA
:101D80000832D001D002D0037F047E00122E1290C0
:101D900043007402F09040007408F0904200740315
:101DA000F07B0C7A01790812353E9046A1EFF07B6A
:101DB000007A4279227D087C001234DB7B007A4273
:101DC00079207D517C101234DB90000CE4F07F19F7
:101DD0007E007D007C0090000612080690000AE05C
:101DE000FEA3E0FF8F828E831207EEEC4D4E4F6014
:101DF0004E90000CE0FFEF64036044904225E0FF4A
:101E0000EF5401FF7E0090000CE0FEEE25E0FEEEB8
:101E10004FFFEF5403FF90000CEFF07FE07E017D59
:101E2000007C00122D009000061207EE7BFF7AFF67
:101E300079FF78FF120677900006120806809D7BD6
:101E4000007A4079047D007C011234DB90400474F8
:101E500007F0904006E4F09040087448F090400489
:101E6000E4F09040017402F090400B7404F0904351
:101E7000A2E0FFEF447FFFEFF09043A1E0FFEF44CB
:101E800001FFEFF09043A0E0FFEF4480FFEFF0226E
:101E9000900053E4F0905120E0FFEF5480FFEFF00A
:101EA000905122E0FFEF54F0FF900053EFF09000CC
:101EB00053E0FFEF440FFF905122EFF0905123E0E9
:101EC000FFEF54F0FF900053EFF0900053E0FF90CD
:101ED0005123EFF0905124E0FFEF54F0FF900053B6
:101EE000EFF0900053E0FF905124EFF0905120E08C
:101EF000FFEF54DFFFEFF0905120E0FFEF4440FF91
:101F0000EFF07F007E00122E48905120E0FFEF445A
:101F100010FFEFF07F017E00122E48905121E0FF6C
:101F2000900053EFF0905120E0FFEF54EFFFEFF0FF
:101F3000900053E0FFEF5408FF900053EFF09051F2
:101F400020E0FFEF4410FFEFF07F017E00122E48EB
:101F5000905120E0FFEF54EFFFEFF0900053E0FFCF
:101F6000EF709F905120E0FFEF54BFFFEFF09051D2
:101F700020E0FFEF5480FFEFF0905122E0FFEF549C
:101F8000F0FF900053EFF0900053E0FF905122EFEC
:101F9000F0905123E0FFEF54F0FF900053EFF090EA
:101FA0000053E0FFEF440FFF905123EFF0905124D6
:101FB000E0FFEF54F0FF900053EFF0900053E0FF8C
:101FC000EF440FFF905124EFF022759300780075D5
:101FD00083467582E8E04401F0009046ECE0F99019
:101FE00046FAE0FAB903225420B40012B8001AEA03
:101FF000901FFFF07401901FFEF09046F6F0901FC6
:10200000FEE06005901FFFE0FA90480074C0F07594
:10201000812190000078007920E4F0A3D8FCD9FA5F
:10202000EA9000BEF0020011750D1F750EFD121B27
:102030002602206F0215B1E493A3F8E493A34003B2
:10204000F68001F208DFF48029E493A3F854072412
:102050000CC8C333C4540F4420C8834004F45680D2
:102060000146F6DFE4800B01020408102040809056
:10207000255DE47E019360BCA3FF543F30E5095425
:102080001FFEE493A360010ECF54C025E060A8407A
:10209000B8E493A3FAE493A3F8E493A3C8C582C871
:1020A000CAC583CAF0A3C8C582C8CAC583CADFE946
:1020B000DEE780BEC0E0C0F0C083C082C085C084BF
:1020C000C086758600C093759300C0D075D000C0DF
:1020D00000C001C002C003C004C005C006C0079014
:1020E00000D2E0FEA3E0FFEF64014E701D1235BC8C
:1020F000EF600D122CC29000D0EEF0A3EFF0805FE5
:102100009000D0E4F0A3E4F08055122CC2900002BD
:10211000EEF0A3EFF0900002E0FEA3E0FFD3EF9417
:10212000D8EE648094D94027900002E0FEA3E0FF3F
:10213000C3EF9490EE648094E5500A900002E0FEB4
:10214000A3E0FF80089000DAE0FEA3E0FF800890A3
:1021500000DAE0FEA3E0FF9000DAEEF0A3EFF0D0AB
:1021600007D006D005D004D003D002D001D000D0D3
:10217000D0D093D086D084D085D082D083D0F0D0F8
:10218000E0329043AAE0FFEF4401FFEFF09043AA52
:10219000E0FFEF4410FFEFF09043BAE0FFEF44019F
:1021A000FFEFF09043BAE0FFEF4410FFEFF0900034
:1021B000C3E0FFEF6401703E9046F8E0FFEF440299
:1021C000FFEFF09046F9E0FFEF4402FFEFF0905888
:1021D00091E0FFEF4403FFEFF07F037E00122E48F3
:1021E0009046F8E0FFEF54FDFFEFF09046F9E0FF76
:1021F000EF54FDFFEFF0905877E0FFEF4406FFEF5C
:10220000F09043A1E0FFEF4401FFEFF09043B1E015
:10221000FFEF4401FFEFF09043A2E0FFEF4420FF07
:10222000EFF09043B2E0FFEF4420FFEFF022C0E078
:10223000C0F0C083C082C085C084C086758600C0DF
:1022400093759300C0D075D000C000C001C002C01B
:1022500003C004C005C006C007123556EF2480FD38
:10226000EE34DFFCEC1203367B667A667966783FE3
:10227000120112C004C005C006C0079000D8E0FCDF
:10228000A3E0FDEC1203367BD07ACC79CC783D12FA
:102290000112A804A905AA06AB07D007D006D005ED
:1022A000D00412002112036F9000D8EEF0A3EFF0DB
:1022B0007F0112342ED007D006D005D004D003D031
:1022C00002D001D000D0D0D093D086D084D085D099
:1022D00082D083D0F0D0E032C0E0C0F0C083C082B2
:1022E000C085C084C086758600C093759300C0D039
:1022F00075D000C000C001C002C003C004C005C04A
:1023000006C007123560EF240CFDEE34E0FCEC1241
:1023100003367B667A667966783F120112C004C084
:1023200005C006C0079000D6E0FCA3E0FDEC120358
:10233000367BD07ACC79CC783D120112A804A9055D
:10234000AA06AB07D007D006D005D0041200211290
:10235000036F9000D6EEF0A3EFF07F0112345ED051
:1023600007D006D005D004D003D002D001D000D0D1
:10237000D0D093D086D084D085D082D083D0F0D0F6
:10238000E03290FFFF12086DEFF090FFFE12086D33
:10239000850D83850E82A3A3E0FFEFD3941F500326
:1023A000D38001C34025850D83850E82A3A3E0FF62
:1023B000EFD3941F500A7F017E007D007C008008CF
:1023C0007F007E007D007C00122F1C850D83850E12
:1023D00082A3A3E0FFEF541FFF7E00EF7803CEC37C
:1023E00013CE13D8F9FFEF24C0FFEE3444FE850D61
:1023F00083850E82EEF0A3EFF0850D83850E82A318
:10240000A3E0FFEF5407FF7401A807088002C3335D
:10241000D8FCFF850D83850E82E0FCA3E0FD8D8254
:102420008C83EFF090000312086D2290004CEFF0C7
:1024300090004DECF0A3EDF090004CE0FFEFD39452
:102440001F5003D38001C3402090004CE0FFEFD326
:10245000941F500A7F017E007D007C0080087F0071
:102460007E007D007C00122F1C90004CE0FFEF549A
:102470001FFF7E00EF25E0FFEE33FEEF2400FFEEAE
:102480003444FEAA06A9077B011234CE90004FEE19
:10249000F0A3EFF090004CE0FF7E02EF8EF0A4FF7F
:1024A000AEF0EF2400FFEE3444FEAA06A9077B013C
:1024B00090004DE0FEA3E0FFAD07AC061234DD90C6
:1024C000004FE0FEA3E0FF2290004CEFF090004DA3
:1024D000EDF090004DE0FFEFD394075003D380015F
:1024E000C3402090004DE0FFEFD39407500A7F01D6
:1024F0007E007D007C0080087F007E007D007C00E7
:10250000122F1C90004CE0FFEFD3941F5003D38098
:1025100001C3402090004CE0FFEFD3941F500A7F8E
:10252000017E007D007C0080087F007E007D007CB5
:1025300000122F1C90004DE0FFEF5407FF7E00EFCC
:1025400075F020A4FFAEF090004CE0FEEE541FFEAC
:1025500074802EF582E43444F583EFF0224200D8F3
:1025600000004200D600004200DA5F644200D0AFB3
:10257000C84200D200004200D402584100E30041AA
:1025800000E2004100E1004100E4004100E50041BB
:1025900000E6004100E7004100E8004100CB0041B7
:1025A00000C9004100C4004100CA004100C3014409
:1025B00000C5000000004400CC000033334100E9B6
:1025C000004400BA016E36004400B500005DC04111
:1025D00000B9184400BF2EE000004100EAFF4300AC
:1025E000DC0000004100EB0000904F24E0FFEF44CE
:1025F00002FFEFF0904F26E0FFEF548FFF90004B6B
:10260000EFF090004BE0FFEF4410FF904F26EFF00B
:10261000904F2FE0FFEF54CFFFEFF0904F2FE0FFF0
:10262000EF4430FFEFF0904F2FE0FFEF54F0FFEF5B
:10263000F0904F2FE0FFEF440FFFEFF07FE77E03B6
:102640001231197FF47E01123133904F27E4F0905C
:1026500043A3E0FFEF4408FFEFF0904F25E0FFEFCA
:102660004401FFEFF022904F0CE0FFEF4402FFEF38
:10267000F0904F0EE0FFEF548FFF90004BEFF09083
:10268000004BE0FFEF4410FF904F0EEFF0904F171C
:10269000E0FFEF54CFFFEFF0904F17E0FFEF443033
:1026A000FFEFF0904F17E0FFEF54F0FFEFF0904F87
:1026B00017E0FFEF440FFFEFF07FE77E0312314D8D
:1026C0007FF47E01123167904F0FE4F09043A3E056
:1026D000FFEF4402FFEFF0904F0DE0FFEF4401FFEA
:1026E000EFF022904F18E0FFEF4402FFEFF0904F21
:1026F0001AE0FFEF548FFF90004BEFF090004BE09B
:10270000FFEF4410FF904F1AEFF0904F23E0FFEFE0
:1027100054CFFFEFF0904F23E0FFEF4430FFEFF096
:10272000904F23E0FFEF54F0FFEFF0904F23E0FFD6
:10273000EF440FFFEFF07FE77E031231817FF47EDD
:102740000112319B904F1BE4F09043A3E0FFEF4454
:1027500004FFEFF0904F19E0FFEF4401FFEFF0228C
:10276000904F00E0FFEF4402FFEFF0904F02E0FFD8
:10277000EF548FFF90004BEFF090004BE0FFEF44E1
:1027800010FF904F02EFF0904F0BE0FFEF54CFFFA0
:10279000EFF0904F0BE0FFEF4430FFEFF0904F0B66
:1027A000E0FFEF54F0FFEFF0904F0BE0FFEF440F2E
:1027B000FFEFF07FE77E031231B57FF47E01123127
:1027C000CF904F03E4F09043A3E0FFEF4401FFEF0D
:1027D000F0904F01E0FFEF4401FFEFF0227F287EF1
:1027E000007D007C001228577F03122AB77F057EE8
:1027F000007D007C001228577F03122AB77F0F7ECE
:10280000007D007C001228577F03122AB77F017ECB
:10281000007D007C001228577F02122AB77F057EB8
:10282000007D007C001228577F06122B477F0E1276
:102830002B477F2C122B477F08122B477F01122B2F
:10284000477F0C122B477F03122B477F057E007DAD
:10285000007C001228572290FFFC12086D12080617
:102860007F007E807D007C00850D83850E821207AF
:10287000FAD31207CA40309000BF1207EE122D00A3
:10288000850D83850E82C083C0821207EEC3EF944C
:1028900000FFEE9480FEED9400FDEC9400FCD082ED
:1028A000D08312080680B99000B51207EE850D831B
:1028B000850E821207FA120692122D009000041261
:1028C000086D22C0E0C0F0C083C082C085C084C053
:1028D00086758600C093759300C0D075D000C00087
:1028E000C006C0079000D4E0FEA3E0FFD3EF940041
:1028F000EE64809480400B9000D474FF75F0FF125A
:1029000006619000D2E4F0A3E4F0D007D006D00036
:10291000D0D0D093D086D084D085D082D083D0F050
:10292000D0E03290004BEFF090004CEDF090004B77
:10293000E0FFEF12084729460029530129600229C8
:102940006D030000297990004CE0FFEF2480FF1216
:102950002B472290004CE0FFEF24C0FF122B4722B0
:1029600090004CE0FFEF2494FF122B472290004C84
:10297000E0FFEF24D4FF122B4722900052EFF01219
:102980001E90905120E0FFEF4420FFEFF090512087
:10299000E0FFEF54BFFFEFF0905120E0FFEF54F065
:1029A000FFEFF0905120C083C082E0FF900052E022
:1029B000FEEE4410FEEF4EFFD082D083EFF07F0199
:1029C0007E00122E48905120E0FFEF54EFFFEFF011
:1029D0002290004B12083290004E7401F090004B90
:1029E0001208121205A2FF90004FEFF090004FE086
:1029F000FFEF602A90004FE0FF122D3B90004B123A
:102A0000081290004EE0FFE92FF9E43AFA1205A20D
:102A1000FF90004FEFF090004EE004F080CE227B5C
:102A20000C7A0179CF12353E900006EFF090000647
:102A3000E0FFEF5407FF90586EEFF0900006E0FFC4
:102A4000EFC4540FFFEF540FFF90586FEFF0905109
:102A50001D7404F090515D7402F0905B007406F0F8
:102A6000905B587406F09058767444F02290004EB3
:102A7000EFF090004EE0FFEFC39402503990004E0B
:102A8000E0FFEF25E024F6F582E43435F583E493A6
:102A9000FE740193FF8F828E83C083C082E0FF901B
:102AA000004EE0FEEE9035FA93FEEEF4FEEF5EFF90
:102AB000D082D083EFF02290004FEFF0905120E0D1
:102AC000FFEF549FFFEFF0905120E0FFEF54F0FF35
:102AD000EFF0905120C083C082E0FF90004FE0FEF5
:102AE000EE4410FEEF4EFFD082D083EFF07F017EE8
:102AF00000122E48905120E0FFEF54EFFFEFF0223C
:102B000090004DEFF090004DE0FFEFC3940250367F
:102B100090004DE0FFEF25E024F6F582E43435F532
:102B200083E493FE740193FF8F828E83C083C082FF
:102B3000E0FF90004DE0FEEE9035FA93FEEF4EFF81
:102B4000D082D083EFF02290004DEFF090004DE066
:102B5000FFEFC4540FFF90004EEFF0121E90900054
:102B60004EE0FFEF540FFF90004EEFF090004EE06C
:102B7000FF122AB790004DE0FFEF540FFF90004E78
:102B8000EFF090004EE0FF122AB722C2D5E830E7FE
:102B90000FB2D5E4C39BFBE49AFAE499F9E498F800
:102BA000EC30E717B2D5122BC112071DE4C39BFB13
:102BB000E49AFAE499F9E498F8800312071D30D5F5
:102BC0000DE4C39FFFE49EFEE49DFDE49CFC229087
:102BD000004CEFF09046F8E0FFEF4403FFEFF09079
:102BE00046F9E0FFEF4403FFEFF090004CE0FF9068
:102BF0005892EFF07F037E00122E489046F8E0FFD7
:102C0000EF54FCFFEFF09046F9E0FFEF54FCFFEFCC
:102C1000F022906479E0FFEF54C0FF90004BEFF09A
:102C200090004BE0FFEF4401FF906479EFF0906576
:102C300099E0FFEF4401FFEFF07F0912346E7F0946
:102C400012347E7F0512348E7F0412349E227F0F51
:102C50007E271231E97F0F7E2712320312339890BC
:102C6000004BEFF090659BE0FFEF4410FFEFF0901A
:102C7000004BE0FF12326A1235027F00122D7112F2
:102C800034AE7F0212343E227F0F7E2712321D7F28
:102C90000F7E2712323712339890004BEFF090647A
:102CA00098E0FFEF4410FFEFF090004BE0FF12328E
:102CB0006A12351A7F00122DA71234BD7F0212341A
:102CC0004E22904E11E0FF7E00900004EEF0A3EF44
:102CD000F0900004E0FEA3E0FFEF7F00FE904E10B6
:102CE000E0FD7C00EE4CFEEF4DFF900004EEF0A303
:102CF000EFF0900004E0FEA3E0FF223232323232E5
:102D0000EC4D4E700D78FCEF24E950032840FD2275
:102D100000007BF178DA0000EF28FF78FFEE38FE44
:102D2000ED38FDEC38FC50E7EF2BFFEE38FEED38C8
:102D3000FDEC38FC40F22205020304900050EFF055
:102D4000121E90900050E0FFEFC4540FFF9000510E
:102D5000EFF0900051E0FF12297A900050E0FFEF71
:102D6000540FFF900051EFF0900051E0FF12297ACC
:102D70002290004CEFF090004CE0FFEF5403FF90E6
:102D8000004CEFF090647BE0FFEF54FCFFEFF0901D
:102D9000647BC083C082E0FF90004CE0FEEF4EFFFA
:102DA000D082D083EFF02290004CEFF090004CE006
:102DB000FFEF5403FF90004CEFF0906478E0FFEFDA
:102DC00054FCFFEFF0906478C083C082E0FF900075
:102DD0004CE0FEEF4EFFD082D083EFF02254696CBE
:102DE000743A202535640053746F707065642E2E1C
:102DF0002E2E2E0052756E6E696E672E2E2E2E2E82
:102E000000000000000000000000000000000000C2
:102E10000000758600EF4E6027EF60010E7593008D
:102E2000900012E0F595A3E0F585A3E0F5848B937F
:102E30008A838982E0A30586F0A31586DFF6DEF497
:102E4000E4F593F595223232EEFA9000B9E0F88F6E
:102E5000F0A4FFAEF0E88AF0A42EFEE5F03400FD09
:102E6000EF24C9FF78FFEE38FEED38FDE438FC5062
:102E700003022D0022ACEAADA08B938A838982E005
:102E8000F96017A3E0F5EAA3E0F5A0A3E060F4FA87
:102E9000A3E0F8A3E0F2DAF8D9E98DA08CEAE4F532
:102EA0009322C0E0C083C082C085C084C08675867E
:102EB00000C0937593009000D2E4F0A37401F0D0A9
:102EC00093D086D084D085D082D083D0E032900059
:102ED0004DE4F090004DE0FFEFC3940250109000DD
:102EE0004DE0FF122A6D90004DE004F080E5900067
:102EF000EA74FFF022EFB40A07740D122F00740A6F
:102F0000309811A899B8130CC2983098FDA899C2AE
:102F100098B811F63099FDC299F5992290FFFF12E9
:102F2000086DEFF0850D83850E82E0FF850D8385AA
:102F30000E82EFF09046EA7401F090000112086DE5
:102F4000227F01120E237F10122FEC7F1012300D02
:102F50009000507410F07B007A807D587C8E7F0248
:102F6000121924229043A3E0FFEF4408FFEFF090F2
:102F700043B3E0FFEF4408FFEFF0904F24E0FFEF92
:102F80004401FFEFF0229043A3E0FFEF4402FFEF84
:102F9000F09043B3E0FFEF4402FFEFF0904F0CE0FE
:102FA000FFEF4401FFEFF0229043A3E0FFEF440462
:102FB000FFEFF09043B3E0FFEF4404FFEFF0904FDA
:102FC00018E0FFEF4401FFEFF0229043A3E0FFEF92
:102FD0004401FFEFF09043B3E0FFEF4401FFEFF057
:102FE000904F00E0FFEF4401FFEFF02290004BEF25
:102FF000F0904102C083C082E0FF90004BE0FEEE03
:1030000054F8FEEF4EFFD082D083EFF02290004BB9
:10301000EFF0904096C083C082E0FF90004BE0FE4E
:10302000EE54F8FEEF4EFFD082D083EFF0229000F6
:103030004BEEF0A3EFF07B027A44790290004BE074
:10304000FEA3E0FFAD07AC061234DD2290004BEE8C
:10305000F0A3EFF07B027A44790690004BE0FEA3E8
:10306000E0FFAD07AC061234DD2290004BEEF0A37A
:10307000EFF07B027A44790490004BE0FEA3E0FF7E
:10308000AD07AC061234DD2290004BEEF0A3EFF05A
:103090007B027A44790090004BE0FEA3E0FFAD078D
:1030A000AC061234DD2290004BEEF0A3EFF07B0271
:1030B0007A44793A90004BE0FEA3E0FFAD07AC06FE
:1030C0001234DD227FF47E0112319B7FF47E0112E7
:1030D00031337FF47E011231CF7FF47E01123167EC
:1030E000229000C4E0FFEF70119000CAE0FFEF7083
:1030F00003122F419000C47401F01221822290002B
:103100004CEFF0122ECE90004CE0FF122B009000FE
:103110004CE0FF9000EAEFF02290004CEEF0A3EFBD
:10312000F07B027A4F792890004CE0FCA3E0FD127E
:1031300034DD22900061EEF0A3EFF07B027A4F794C
:103140002A900061E0FCA3E0FD1234DD2290004CE7
:10315000EEF0A3EFF07B027A4F791090004CE0FC88
:10316000A3E0FD1234DD22900061EEF0A3EFF07BCE
:10317000027A4F7912900061E0FCA3E0FD1234DD89
:103180002290004CEEF0A3EFF07B027A4F791C9076
:10319000004CE0FCA3E0FD1234DD22900061EEF073
:1031A000A3EFF07B027A4F791E900061E0FCA3E070
:1031B000FD1234DD2290004CEEF0A3EFF07B027A9A
:1031C0004F790490004CE0FCA3E0FD1234DD229026
:1031D0000061EEF0A3EFF07B027A4F790690006178
:1031E000E0FCA3E0FD1234DD2290004CEEF0A3EFF2
:1031F000F07B027A65792A90004CE0FCA3E0FD1296
:1032000034DD2290004CEEF0A3EFF07B027A65797A
:103210000A90004CE0FCA3E0FD1234DD2290004C4B
:10322000EEF0A3EFF07B027A64792A90004CE0FC88
:10323000A3E0FD1234DD2290004CEEF0A3EFF07B12
:10324000027A64790A90004CE0FCA3E0FD1234DDC0
:1032500022EC4D6011ED60010C8B938A838982E42E
:10326000F0A3DDFCDCFA75930022EF54016004D278
:10327000AF8002C2AFEF5402FF9044F4E054FD4F20
:10328000F02290004BEFF090004BE0FFEFC433547E
:10329000E0FF904481EFF02290004BEFF090004B64
:1032A000E0FFEFC43354E0FF904483EFF02290003E
:1032B0004BEFF090004BE0FFEFC43354E0FF90443D
:1032C00082EFF02290004BEFF090004BE0FFEFC454
:1032D0003354E0FF904480EFF02290004BEFF090E9
:1032E000004BE0FFEFC43354E0FF90449DEFF02229
:1032F0009000E3E0FFEF70091225E99000E374010C
:10330000F0122F64229000E1E0FFEF70091227DD38
:103310009000E17401F01234EA229000E4E0FFEF43
:1033200070091226669000E47401F0122F86229034
:1033300000E5E0FFEF70091226E39000E57401F06C
:10334000122FA8229000E6E0FFEF7009122760908C
:1033500000E67401F0122FCA229000E7E0FFEF7040
:1033600009122C4E9000E77401F01234F6229000FE
:10337000E8E0FFEF7009122C889000E87401F01269
:10338000350E229000E9E0FFEF7009122C12900038
:10339000E97401F0123532229044F4E0F84402F06E
:1033A000E85402FF10AF012274014FFF2212357161
:1033B0007E2C7FFB12302E7F0712328212356A225A
:1033C00012357F7E2C7FFC12304C7F071232981210
:1033D00035782212358D7E2C7FFD12306A7F0712E0
:1033E00032AE1235862212359B7E2C7FFE1230883B
:1033F0007F071232C4123594221235A97E2C7FFF2A
:103400001230A67F071232DA1235A2228B938A83FA
:103410008982EFF0A3EEF0A3EDF075930022123352
:103420002F1232F012334412331A1230C422900099
:1034300000EFF0900000E0FF90657AEFF02290003E
:103440004CEFF090004CE0FF90658BEFF022900085
:103450004CEFF090004CE0FF906488EFF022900079
:1034600001EFF0900001E0FF906578EFF02290000E
:103470004CEFF090004CE0FF906509EFF0229000D7
:103480004CEFF090004CE0FF906549EFF022900087
:103490004CEFF090004CE0FF906529EFF022900097
:1034A0004CEFF090004CE0FF906539EFF0221235C0
:1034B000B07E00EF30E30512355680F2221235B6A9
:1034C0007E00EF30E30512356080F2228B938A8311
:1034D0008982E0FFA3E0FE759300228B938A8389A3
:1034E00082EDF0A3ECF0759300227F0C122B479035
:1034F00000E27401F02290647BE0FFEF4480FFEF74
:10350000F02290647BE0FFEF4410FFEFF022906424
:1035100078E0FFEF4480FFEFF022906478E0FFEF67
:103520004410FFEFF022904E00E0FFEF4401FFEF68
:10353000F022906479E0FFEF4480FFEFF0228B935C
:103540008A838982E0759300FF228B938A83898224
:10355000EDF0759300227B027A65794A1234CE220F
:103560007B027A64794A1234CE229044C07402F00D
:10357000229044C87402F0229044C07408F0229053
:1035800044C87408F0229044C07404F0229044C8E7
:103590007404F0229044C07401F0229044C8740175
:1035A000F0229044C37420F0229044CB7420F02287
:1035B00090656BE0FF22906468E0FF2290656AE00E
:1035C000FF223232004F0000300051400010005105
:1035D0006000100051C000100051F0001001000008
:1035E000100001140008000140000A00014C000214
:1035F0000001500000205B035B034040000000001E
:0436000000000000C6
:00000001FF
