:10000000023256008F828E83E0540100000070F8A7
:100010002278FFE4F6D8FD0232B4900028E4F0A381
:10002000E4F07BFF7A3E7964C003C002C0017B012B
:100030007A00792AA801AC02AD03D001D002D00326
:100040007E007F11121A021245DA1244C112429D3B
:100050001246A212451512452A1245B57E2A7FA0E6
:100060001242621245697E377F271241EA12457CAF
:100070007E337F401242081245A27E267F3912420B
:100080004412458F7E3A7F8712422612453FD2AFF7
:100090009044F4E0FFEF54FDFFEFF0900028E0FE05
:1000A000A3E0FFEF4E60030210287F2E7EFA7D8EC4
:1000B0007C3C9000C5121855121126C004C005C022
:1000C00006C0077F2E7EFA7D8E7C3C9000C51218FC
:1000D00055121126A804A905AA06AB07D007D00619
:1000E000D005D004121126C004C005C006C0077F89
:1000F0002E7EFA7D8E7C3C9000C51218551211267A
:10010000A804A905AA06AB07D007D006D005D004DD
:100110001211267B007A0079C0784012122FC00499
:10012000C005C006C0077F2E7EFA7D8E7C3C900005
:10013000C5121855121126D003D002D001D00012DA
:1001400010319000E912185512112690003B121838
:10015000617F2E7EFA7D8E7C3C9000C51218551270
:100160001126C004C005C006C0077F2E7EFA7D8E12
:100170007C3C9000C5121855121126A804A905AAA6
:1001800006AB07D007D006D005D004121126C00454
:10019000C005C006C0077F2E7EFA7D8E7C3C900095
:1001A000C5121855121126A804A905AA06AB07D036
:1001B00007D006D005D0041211267B007A0079C042
:1001C000784012122FC004C005C006C0077F2E7EE3
:1001D000FA7D8E7C3C9000C5121855121126D00372
:1001E000D002D001D0001210319000DF1218551249
:1001F0001126C004C005C006C0077F2E7EFA7D8E82
:100200007C3C9000C5121855121126C004C005C0D0
:1002100006C0077F2E7EFA7D8E7C3C9000C51218AA
:1002200055121126A804A905AA06AB07D007D006C7
:10023000D005D0041211267B007A00790078401294
:10024000122FA804A905AA06AB077F007E007D80B7
:100250007C3F1210319000E91218551211269000BF
:10026000EF1218551211267B2E7AFA798E783C12ED
:100270001126A804A905AA06AB07D007D006D00509
:10028000D00412103590005B1218617F2E7EFA7D2B
:100290008E7C3C9000C5121855121126C004C00572
:1002A000C006C0077F2E7EFA7D8E7C3C9000C51272
:1002B0001855121126A804A905AA06AB07D007D025
:1002C00006D005D0041211267B007A007900784010
:1002D00012122FA804A905AA06AB077F007E007D95
:1002E000807C3F1210319000E9121855121126C07F
:1002F00004C005C006C0077F2E7EFA7D8E7C3C9030
:1003000000D9121855121126C004C005C006C00736
:100310007F2E7EFA7D8E7C3C9000D91218551211EA
:1003200026A804A905AA06AB07D007D006D005D099
:10033000041211267B007A007900784012122FA84F
:1003400004A905AA06AB077F007E007D807C3F12D2
:100350001031A804A905AA06AB07D007D006D0051E
:10036000D0041211267B007A00791078C112103562
:100370009000431218617F2E7EFA7D8E7C3C9000A7
:10038000C5121855121126C004C005C006C0077F4B
:100390002E7EFA7D8E7C3C9000C5121855121126D7
:1003A000A804A905AA06AB07D007D006D005D0043B
:1003B000121126C004C005C006C0077F2E7EFA7D3C
:1003C0008E7C3C9000C5121855121126A804A90570
:1003D000AA06AB07D007D006D005D0041211267BA1
:1003E000007A0079C0784012122FC004C005C00600
:1003F000C0077F2E7EFA7D8E7C3C9000C51218557A
:10040000121126D003D002D001D00012103190007A
:10041000E9121855121126C004C005C006C0077F96
:100420002E7EFA7D8E7C3C9000D912185512112632
:10043000C004C005C006C0077F2E7EFA7D8E7C3CBE
:100440009000D9121855121126A804A905AA06ABC6
:1004500007D007D006D005D0041211267B007A0001
:100460007900784012122FA804A905AA06AB077FCD
:10047000007E007D807C3F121031A804A905AA06E9
:10048000AB07D007D006D005D0041211269000EF9C
:100490001218551211267B2E7AFA798E783C121199
:1004A00026C004C005C006C0077F2E7EFA7D8E7C64
:1004B0003C9000C5121855121126C004C005C00694
:1004C000C0077F2E7EFA7D8E7C3C9000C5121855A9
:1004D000121126A804A905AA06AB07D007D006D09A
:1004E00005D0041211267B007A00790078401212A0
:1004F0002FA804A905AA06AB077F007E007D807C9B
:100500003F1210319000DF121855121126C004C09E
:1005100005C006C0077F2E7EFA7D8E7C3C9000D9F8
:10052000121855121126C004C005C006C0077F2E40
:100530007EFA7D8E7C3C9000D9121855121126A8A7
:1005400004A905AA06AB07D007D006D005D004122F
:1005500011267B007A007900784012122FA804A996
:1005600005AA06AB077F007E007D807C3F1210311C
:10057000A804A905AA06AB07D007D006D005D00469
:10058000121126D003D002D001D000121031C004C5
:10059000C005C006C0077F2E7EFA7D8E7C3C900091
:1005A000D9121855121126C004C005C006C0077F15
:1005B0002E7EFA7D8E7C3C9000D9121855121126A1
:1005C000A804A905AA06AB07D007D006D005D00419
:1005D000121126C004C005C006C0077F2E7EFA7D1A
:1005E0008E7C3C9000D9121855121126A804A9053A
:1005F000AA06AB07D007D006D005D0041211267B7F
:10060000007A0079C0784012122FC004C005C006DD
:10061000C0077F2E7EFA7D8E7C3C9000D912185543
:10062000121126D003D002D001D000121031C00424
:10063000C005C006C0077F2E7EFA7D8E7C3C9000F0
:10064000C5121855121126C004C005C006C0077F88
:100650002E7EFA7D8E7C3C9000C512185512112614
:10066000A804A905AA06AB07D007D006D005D00478
:100670001211267B007A007900784012122FA8040C
:10068000A905AA06AB077F007E007D807C3F121083
:10069000319000E9121855121126A804A905AA06DE
:1006A000AB07D007D006D005D0041211269000CD9C
:1006B0001218551211267B2E7AFA798E783C121177
:1006C00026A804A905AA06AB07D007D006D005D0F6
:1006D000041210319000531218617F2E7EFA7D8E25
:1006E0007C3C9000D9121855121126C004C005C0D8
:1006F00006C0077F2E7EFA7D8E7C3C9000D91218B2
:1007000055121126A804A905AA06AB07D007D006E2
:10071000D005D004121126C004C005C006C0077F52
:100720002E7EFA7D8E7C3C9000D91218551211262F
:10073000A804A905AA06AB07D007D006D005D004A7
:100740001211267B007A0079C0784012122FC00463
:10075000C005C006C0077F2E7EFA7D8E7C3C9000CF
:10076000D9121855121126D003D002D001D0001290
:100770001031C004C005C006C0077F2E7EFA7D8EF2
:100780007C3C9000C5121855121126C004C005C04B
:1007900006C0077F2E7EFA7D8E7C3C9000C5121825
:1007A00055121126A804A905AA06AB07D007D00642
:1007B000D005D0041211267B007A0079007840120F
:1007C000122FA804A905AA06AB077F007E007D8032
:1007D0007C3F121031C004C005C006C0079000E97C
:1007E000121849121345A804A905AA06AB07D00799
:1007F000D006D005D004121126A804A905AA06AB7C
:1008000007D007D006D005D00412112690004B1255
:1008100018617F2E7EFA7D8E7C3C9000C5121855A3
:10082000121126C004C005C006C0077F2E7EFA7DC7
:100830008E7C3C9000C5121855121126A804A905FB
:10084000AA06AB07D007D006D005D004121126C0E7
:1008500004C005C006C0077F2E7EFA7D8E7C3C90CA
:1008600000C5121855121126A804A905AA06AB073F
:10087000D007D006D005D0041211267B007A00796B
:10088000C0784012122FC004C005C006C0077F2EDA
:100890007EFA7D8E7C3C9000C5121855121126D030
:1008A00003D002D001D0001210319000E912185587
:1008B000121126C004C005C006C0077F2E7EFA7D37
:1008C0008E7C3C9000D9121855121126C004C00528
:1008D000C006C0077F2E7EFA7D8E7C3C9000D91228
:1008E0001855121126A804A905AA06AB07D007D0EF
:1008F00006D005D004121126C004C005C006C007EA
:100900007F2E7EFA7D8E7C3C9000D91218551211F4
:1009100026A804A905AA06AB07D007D006D005D0A3
:10092000041211267B007A0079C0784012122FC081
:1009300004C005C006C0077F2E7EFA7D8E7C3C90E9
:1009400000D9121855121126D003D002D001D000C0
:10095000121031A804A905AA06AB07D007D006D00B
:1009600005D0041211269000EF1218551211267BA3
:100970002E7AFA798E783C121126C004C005C00682
:10098000C0077F2E7EFA7D8E7C3C9000D9121855D0
:10099000121126C004C005C006C0077F2E7EFA7D56
:1009A0008E7C3C9000D9121855121126A804A90576
:1009B000AA06AB07D007D006D005D004121126C076
:1009C00004C005C006C0077F2E7EFA7D8E7C3C9059
:1009D00000D9121855121126A804A905AA06AB07BA
:1009E000D007D006D005D0041211267B007A0079FA
:1009F000C0784012122FC004C005C006C0077F2E69
:100A00007EFA7D8E7C3C9000D9121855121126D0AA
:100A100003D002D001D000121031C004C005C006BE
:100A2000C0077F2E7EFA7D8E7C3C9000C512185543
:100A3000121126C004C005C006C0077F2E7EFA7DB5
:100A40008E7C3C9000C5121855121126A804A905E9
:100A5000AA06AB07D007D006D005D0041211267B1A
:100A6000007A007900784012122FA804A905AA067E
:100A7000AB077F007E007D807C3F121031C004C038
:100A800005C006C0079000DF121849121345A804DC
:100A9000A905AA06AB07D007D006D005D0041211CD
:100AA00026A804A905AA06AB07D007D006D005D012
:100AB00004121126A804A905AA06AB07D007D00680
:100AC000D005D004121035C004C005C006C0077F91
:100AD0002E7EFA7D8E7C3C9000C512185512112690
:100AE000C004C005C006C0077F2E7EFA7D8E7C3C08
:100AF0009000C5121855121126A804A905AA06AB24
:100B000007D007D006D005D0041211267B007A004A
:100B10007900784012122FA804A905AA06AB077F16
:100B2000007E007D807C3F1210319000E912185544
:100B3000121126C004C005C006C0077F2E7EFA7DB4
:100B40008E7C3C9000D9121855121126C004C005A5
:100B5000C006C0077F2E7EFA7D8E7C3C9000D912A5
:100B60001855121126A804A905AA06AB07D007D06C
:100B700006D005D0041211267B007A007900784057
:100B800012122FA804A905AA06AB077F007E007DDC
:100B9000807C3F121031A804A905AA06AB07D00734
:100BA000D006D005D0041211269000CD121855128F
:100BB00011267B2E7AFA798E783C121126A804A988
:100BC00005AA06AB07D007D006D005D00412103115
:100BD0009000571218617F007E007D707C4290006B
:100BE000571218551212CC6010400E7F007E007D07
:100BF000007C009000571218617F007E007D707CA1
:100C0000C29000571218551212CC500E7F007E0071
:100C10007D007C009000571218617F007E007D707F
:100C20007C429000531218551212CC6010400E7F77
:100C3000007E007D007C009000531218617F007ED2
:100C4000007D707CC29000531218551212CC500EC9
:100C50007F007E007D007C009000531218617F00B1
:100C60007E007D407C4090003B1218551212CC5003
:100C70001B900053121849900047121861900057BA
:100C800012184990004F121861020D127F337E3303
:100C90007D737C3F900047121855121126C004C086
:100CA00005C006C0077FCD7ECC7D4C7C3D900053B7
:100CB000121855121126A804A905AA06AB07D007D9
:100CC000D006D005D0041210359000471218617F6D
:100CD000337E337D737C3F90004F121855121126DE
:100CE000C004C005C006C0077FCD7ECC7D4C7C3DD6
:100CF000900057121855121126A804A905AA06AB90
:100D000007D007D006D005D00412103590004F123E
:100D100018617FCD7ECC7D4C7C3F90003F121855F2
:100D2000121126C004C005C006C0077FCD7ECC7D51
:100D30004C7C3E90005B121855121126A804A905A0
:100D4000AA06AB07D007D006D005D0041210359004
:100D5000003F1218617FCD7E0C7D417C4490003BAA
:100D6000121855121126C004C005C006C007900015
:100D70003F12184990003F121855121126A804A9D5
:100D800005AA06AB07D007D006D005D0041210354F
:100D900090005F1218617F007E007D007C00900053
:100DA0005F1218551212CC50107F007E007D007C1F
:100DB00000900063121861802390005F121849129E
:100DC00034A490003F1218551210357BCD7A0C795F
:100DD000C1784312122F90006312186190004712DD
:100DE00018499000631218551211269000431218EA
:100DF000551210359000B912186190004F12184921
:100E000090006312185512112690004B12185512BB
:100E100010359000BD1218617B017A00792AC00359
:100E2000C002C0017BFF7A3E793B90007A12188D98
:100E30009000B912184990007D121861D001D002BB
:100E4000D003121A8D7D007F00123AE07B017A00F8
:100E5000792A123B8E7B017A00792AC003C002C036
:100E6000017BFF7A3E794790007A12188D9000BD81
:100E700012184990007D121861D001D002D00312DF
:100E80001A8D7D007F01123AE07B017A00792A12E7
:100E90003B8E9000DDE0FEA3E0FFEF2497FDEE34F3
:100EA000A0FCEC12135B90006B1218617F007E00B7
:100EB0007DF07C4190006B1218551212CC50237FAC
:100EC000007E007DF07CC190006B1218551212CC90
:100ED0006010400E7F007E007D007C0090006B1251
:100EE00018617F007E007D007C3F90006B121855DA
:100EF00012112690006F1218619000C112184990CB
:100F0000006B1218551210359000C11218617F0045
:100F10007E407D1C7C469000C11218551212CC6098
:100F20001240107F007E407D1C7C469000C112184C
:100F30006180217F007E407D1C7CC69000C112181C
:100F4000551212CC500E7F007E407D1C7CC6900056
:100F5000C11218617F0A7ED77D237C3C9000C112AC
:100F600018551211269000731218617F007E007DC3
:100F7000007C009000B91218551212CC50107F005E
:100F80007E007DC87C42900067121861800E7F0051
:100F90007E007D0C7C429000671218617F007E000D
:100FA0007D207C419000D11218551212CC60734004
:100FB000719000E3E0FEA3E0FFC3EF940AEE6480CB
:100FC0009480505E7F007E007D347CC29000BD1214
:100FD0001855121126121394C006C0079000B912BA
:100FE0001849900067121855121126121394AD0774
:100FF000AC06AC06AD07C004C005900073121849DA
:1010000090006F121855121035121394AB07AA06F0
:10101000AA06AB07D005D004D007D006122275026D
:10102000009B12428002009B12428080FE2202142A
:1010300000E86480F8E933E83360110460F0ED33D0
:10104000EC337009E8FCE9FDEAFEEBFF220460DE08
:10105000D3EB9FEA9EE99DE8C2E78CF0C2F795F0DA
:10106000400CE8CCF8E9CDF9EACEFAEBCFFB12134D
:10107000CB85D0F05804700320D5B3E80470075036
:1010800002B2D502140A92D5EC0460F7E4CCC0E0B9
:10109000C398F8603B94186008400DD0E0FB021341
:1010A000E2E4FBFAC9FC8028E830E406E4C9FBE48A
:1010B000CAFCE830E305E4C9CACBFCE85407601079
:1010C000F8C3E913F9EA13FAEB13FBEC13FCD8F1BC
:1010D00030F52FC3E49CFCEF9BFFEE9AFEED99FDEB
:1010E000D0E0FBEF4E4D4C701222DB03021407ECF4
:1010F0002CFCEF33FFEE33FEED33FDED30E7EB027A
:1011000013E2EF2BFFEE3AFEED39FDD0E0FB50137A
:101110000BBB000302140AED13FDEE13FEEF13FFE9
:10112000EC13FC0213E2EC4D6011E8497017ED334B
:10113000EC3304600DE4FCFFFEFD22E933E83304E8
:1011400070F80214001213CB58046009E4CC248117
:10115000500628500902140A284003021407C0E070
:10116000EB4A7044B98006D0E0FB0213F6EF4E70F4
:101170001CBD8008EBFFEAFEE9FD80EBE98DF0A4E1
:10118000FEE5F002120FE9CDF9EAFEEBFFEF89F080
:10119000A4FCE5F0CE89F0A42EFFE435F0CD89F073
:1011A000A42DFEE435F08067EF4E7005BD80D7803A
:1011B000C3EF8BF0A4ACF0EE8BF0A42CFCE435F084
:1011C000F8EF8AF0A42CE5F038FCE433CB8DF0A4E2
:1011D0002CFCE5F03BF8EE8AF0A42CFCE5F038F8A6
:1011E000E433CF89F0A42CFCE5F038CF3400CE896D
:1011F000F0A42FFFE5F03EFEE433C98DF0A42EFEEF
:10120000E5F039CD8AF0A42FFFE5F03EFEE43DFD88
:1012100033D0E0FB50070BBB000F02140AEC2CFC90
:10122000EF33FFEE33FEED33FD0213E202140AEC5E
:101230005D046005E8590470030214001213CB58D2
:101240000460F6EC4860F2EC7004FDFEFF22C8601A
:10125000DB2481C85009C398600250060214079825
:1012600050CAF582E9294B4A7005AB820213F67524
:10127000F0007C1A7880C3EF9BEE9AED99400DC385
:10128000EF9BFFEE9AFEED99FDE842F0DC23ACF017
:10129000D0E0FFD0E0FED0E0FDAB8220E7101BEBFA
:1012A00060BAEC2CFCEF33FFEE33FEED33FD02139E
:1012B000E2E803F830E705C0F075F000EF2FFFEE2D
:1012C00033FEED33FD40B830E7C280AA74F8CC6439
:1012D00080CCC86480C8F58204604FC3EB9FF5F0F2
:1012E000EA9E42F0E99D42F0E89C45F0603C501DCA
:1012F000E5825FFFE582D313CB5BCBF42B5582FBFA
:1013000050280ABA002409B9002008801DE5825B34
:10131000FBE582D313CF5FCFF4C3132F5582FF5069
:10132000090EBE00050DBD00010CC3EB9FF5F0EAF0
:101330009E42F0E99D42F0E89C45F06007CC4820D1
:10134000E701B3EC22ED33EC33600A047003BD8097
:1013500004ECB2E7FC2275F020800E75F0108005D9
:1013600075F0087D007E007F003392D530D50312E2
:101370001817EC334010EF33FFEE33FEED33FDEC86
:1013800033FCD5F0ED22E5F0247EA2D513CC92E714
:10139000CDCEFF22EDD2E7CD33EC3392D524814080
:1013A00006E4FFFEFDFC22FCE4CFCECDCC24E050D1
:1013B0001174FF80EDC3CC13CCCD13CDCE13CECFA3
:1013C00013CF0470F030D5DE021817E9D2E7C93325
:1013D000E833F892D5EDD2E7CD33EC33FC5002B2CE
:1013E000D522EC30E7100FBF000C0EBE00080DBD7B
:1013F00000040BEB6014A2D5EB13FCED92E7FD2289
:1014000074FFFCFDFEFF22E480F8A2D574FF13FCFC
:101410007D80E480EFF920E73624F950037907E472
:10142000F42402FBE582158270021583DBF6E024CA
:10143000FB501BE96014E4F0E5821582700215830D
:10144000E004F0B40A08E4F0D9EE7401F00A22C214
:10145000D522ED33EC3392D5FA602AB4FF33EDC2D6
:10146000E77BFF60067A147977E4227A147980208A
:10147000D5047A14797B224E614E002B494E4600EA
:101480002D494E4600E47A08F0A3DAFC7B0074078D
:1014900022C083C082ECC0E0EDC0E0EEC0E0EFC04F
:1014A000E0EA75F010A4CAABF075F04DA42BFBE494
:1014B00035F0FCEA2410FAEB34C5FBEC34D9FCED32
:1014C000C2E7FF75F056A4F42411C5F0F434C58FBB
:1014D000F0A42AE5F03BE43CF020E714121587D095
:1014E000E0FFD0E0FED0E0FDD0E0FC12122F80142F
:1014F000F404121587D0E0FFD0E0FED0E0FDD0E08C
:10150000FC121126D082D083E0FAEDD2E7CD33EC85
:10151000332482FBE4C3CF33CFCE33CECD33CD33B0
:10152000DBF37B0775F00A846004F0A31B0AE5F087
:10153000F0A38FF0740AA4FFACF08EF0740AA42C10
:10154000FEACF050010C8DF0740AA42CFDE435F0D3
:10155000F0A3DBDE7407223F800000412000004240
:10156000C80000447A0000461C400047C3500049B0
:101570007424004B1896804CBEBC205A0E1BCA67C0
:1015800053C21C749DC5AEFB60065407601C232328
:101590001215B5EB543860091215A11215B01211CD
:1015A00026ECF8EDF9EEFAEFCB22EB1215B080F154
:1015B000543803241C901557FE93FC0EEE93FD0E39
:1015C000EE930ECE93FF22BB010689828A83E0222E
:1015D0005002E722BBFE02E32289828A83E493223F
:1015E000BB010CE58229F582E5833AF583E02250C0
:1015F00006E92582F8E622BBFE06E92582F8E2220A
:10160000E58229F582E5833AF583E49322BB01065E
:1016100089828A83F0225002F722BBFE01F322EF77
:101620008DF0A4A8F0CF8CF0A428CE8DF0A42EFECF
:1016300022BC000BBE0029EF8DF084FFADF022E448
:10164000CCF875F008EF2FFFEE33FEEC33FCEE9D87
:10165000EC984005FCEE9DFE0FD5F0E9E4CEFD22AE
:10166000EDF8F5F0EE8420D21CFEADF075F008EF39
:101670002FFFED33FD4007985006D5F0F222C398B6
:10168000FD0FD5F0EA22C2D5EC30E709B2D5E4C3AC
:101690009DFDE49CFCEE30E715B2D5E4C39FFFE46A
:1016A0009EFE121631C3E49DFDE49CFC80031216DD
:1016B0003130D507C3E49FFFE49EFE22C5F0F8A3B6
:1016C000E028F0C5F0F8E582158270021583E03855
:1016D000F022EF2BFFEE3AFEED39FDEC38FC22C391
:1016E000EF9BFFEE9AFEED99FDEC98FC22E88FF05F
:1016F000A4CC8BF0A42CFCE98EF0A42CFC8AF0ED99
:10170000A42CFCEA8EF0A4CDA8F08BF0A42DCC384C
:1017100025F0FDE98FF0A42CCD35F0FCEB8EF0A484
:10172000FEA9F0EB8FF0A4CFC5F02ECD39FEE43C3E
:10173000FCEAA42DCE35F0FDE43CFC2275F00875E2
:101740008200EF2FFFEE33FECD33CDCC33CCC582FC
:1017500033C5829BED9AEC99E58298400CF582EEB8
:101760009BFEED9AFDEC99FC0FD5F0D6E4CEFBE4A0
:10177000CDFAE4CCF9A88222B800C1B90059BA0068
:101780002DEC8BF084CFCECDFCE5F0CBF97818EFC3
:101790002FFFEE33FEED33FDEC33FCEB33FB10D7C4
:1017A00003994004EB99FB0FD8E5E4F9FA22781885
:1017B000EF2FFFEE33FEED33FDEC33FCC933C910E0
:1017C000D7059BE99A4007EC9BFCE99AF90FD8E012
:1017D000E4C9FAE4CCFB2275F010EF2FFFEE33FEE4
:1017E000ED33FDCC33CCC833C810D7079BEC9AE857
:1017F00099400AED9BFDEC9AFCE899F80FD5F0DAD8
:10180000E4CDFBE4CCFAE4C8F922EF4BFFEE4AFE4C
:10181000ED49FDEC48FC22C3E49FFFE49EFEE49DFD
:10182000FDE49CFC22EB9FF5F0EA9E42F0E99D422C
:10183000F0E89C45F022E8600FEFC333FFEE33FE83
:10184000ED33FDEC33FCD8F122E0FCA3E0FDA3E096
:10185000FEA3E0FF22E0F8A3E0F9A3E0FAA3E0FB97
:1018600022ECF0A3EDF0A3EEF0A3EFF022E0FBA357
:10187000E0FAA3E0F922F8E0FBA3A3E0F925F0F0F9
:10188000E582158270021583E0FA38F022EBF0A3AE
:10189000EAF0A3E9F022E493FB740193FA74029353
:1018A000F922D083D082F8E4937012740193700D02
:1018B000A3A393F8740193F5828883E4737402936D
:1018C0006860EFA3A3A380DFD083D082F8E4937095
:1018D00012740193700DA3A393F8740193F5828899
:1018E00083E473740293B5F0067403936860E9A30C
:1018F000A3A3A380D8E50E2582F582E50D3583F5F7
:1019000083B50D0485820E2210AF0685820EF50D7B
:101910002285820EF50DD2AF22EC8EF0A4CCC5F05C
:10192000CCCDF8EFA4CEC5F02DFDE43CFCE8A42E10
:10193000C8C5F03DFDE43CFCEFA4FFE5F028FEE463
:101940003DFDE43CFC22E709F608DFFA8046E709A2
:10195000F208DFFA803E88828C83E709F0A3DFFA81
:101960008032E309F608DFFA806EE309F208DFFA55
:10197000806688828C83E309F0A3DFFA805A89822B
:101980008A83E0A3F608DFFA804E89828A83E0A387
:10199000F208DFFA804280D280FA80C680D4805577
:1019A00080F28029801080A680EA809A80A880DA60
:1019B00080E280CA802988848C8589828A83E49326
:1019C000A30586F0A30586DFF5DEF3800B89828A06
:1019D00083E493A3F608DFF9ECFAA9F0EDFB228883
:1019E000848C8589828A83E0A30586F0A30586DF3F
:1019F000F6DEF480E389828A83E493A3F208DFF9B8
:101A000080D688F0EF60010E4E60CD88F0ED2402A4
:101A1000B4040050C3F582EB2402B4040050B9238F
:101A20002345822390199673E508247AF582E434DD
:101A300000F583E005082290007730070390007AD4
:101A4000E475F0011218760215C72000E97F2ED246
:101A5000008018EF540F2490D43440D4FF30040B8E
:101A6000EF24BFB41A0050032461FFE5096002159A
:101A700009050CE50C7002050B30070E900077E4A9
:101A800075F001121876EF02160D0240B17403D200
:101A9000078003E4C207F50890007712188DE4F57B
:101AA00009F50BF50CE50960077F20121A6B80F52C
:101AB000750AFFC201C200C202C203C205C206C249
:101AC00008121A37FF700D3007057F00121A7CAF1D
:101AD0000CAE0B22B4255FC2D5C204121A37FF2404
:101AE000D0B40A00501A75F00A780930D50508B646
:101AF000FF0106C6A426F620D5047002D20380D9C1
:101B000024CFB41A00EF5004C2E5D204021D6ED2F5
:101B10000180C6D20080C0D20280BCD2D580BAD2A9
:101B20000580B47F20121A6B2002077401B50900EA
:101B300040F1121A28FF121A6B021AA5D208D20617
:101B40008095121A28FB121A28FA121A28F94A4B01
:101B50007006796C7A1E7BFF20022EE509602A7ED2
:101B6000008E827583001215E060060EEE650A7025
:101B7000F0C2D5EBC0E0EAC0E0E9C0E0EE121DCF54
:101B8000D0E0F9D0E0FAD0E0FB1215C7FF60AAEB75
:101B9000C0E0EAC0E0E9C0E0121A6BD0E02401F92D
:101BA000D0E03400FAD0E0FBE50A0460DCD50AD9C5
:101BB0008087D20280A2121DB160F7E50A7001048D
:101BC000121415A90A600DE50A600914F50A121E1F
:101BD00059EF60F3EA30E702F404C3995079EAF46C
:101BE000250A0430E701E404F50A800D121DB160F6
:101BF000C1EA050A250A121415EA9000A6F030E79A
:101C000001E4250A04D50A0420050114121DCFE4BD
:101C1000C0E0121E599000A6E0601320E70714F000
:101C2000121A53802204F0D0E014C0E07F00121A90
:101C300053E50A6007121A4A150A800B3005031291
:101C40001A4AD0E0021AA5D0E00480C4121DB16087
:101C50009EE50A041214159000A6EAF0E50A200594
:101C6000026001042404121DCF74FF04C0E0121EA0
:101C700059121A53E50A2005026003121A4AD0E0ED
:101C8000B50AE87F45121A5D9000A6E07F2B30E789
:101C9000047F2DF404C0E0121A6BD0E075F00A84C2
:101CA000C0F0121A54D0E0121A54021AA57910800A
:101CB000027908C206C2088008D2D5790A80047960
:101CC0000AC2D5E50A047002F50AE4FAFDFEFF1225
:101CD0001A28FC7B08200113121A28FD7B10300003
:101CE0000A121A28FE121A28FF7B20EC3382D592A2
:101CF000D55013C3E43000069FFFE49EFEE42001AC
:101D0000039DFDE49CFCE4CBF8C201EC700CCFCE4B
:101D1000CDCCE824F8F870F38017C3EF33FFEE332F
:101D2000FEED33FDEC33FCEB33FB994002FB0FD8A7
:101D3000E9EB300105F8D0E0C448B201C0E00AEC9C
:101D40004D4E4F78207B0070C2EAB50A0040BCC0FF
:101D5000E0121DD1D0F0D0E0200104C4C0E0C4B234
:101D600001C0F0121A54D0F0D5F0EB021AA51218E7
:101D7000A21B42531CAD581B134C1B0F421CB14FEE
:101D80001CB9441CB9491B28431CBF551BEC461CFD
:101D90004C451BB6471E8C501B172D1B1B2E1B3E84
:101DA0002B1B1F231B3C201E752A1AD74800001B23
:101DB00036E50AB4FF03750A06121A28FC121A281F
:101DC000FD121A28FE121A28FF90009F0214527961
:101DD0000AA2D5200314300509B910020404B90879
:101DE0000104A2D52006025001042002689202B527
:101DF00009005034C0E07F203003197F30A2027206
:101E0000067205500F121E28C202C206C205C20881
:101E10007F30800F300503E9C0E0121A6B300503F4
:101E2000D0E0F9D0E0B509CC3005177F30B9100CFF
:101E3000121A6B7F583004077F788003B9080312A9
:101E40001A6B3002057F2D021A6B7F202008F87F65
:101E50002B2006F322920280CF7F00B40700500BA4
:101E6000249FF582E43400F583E0FF22286E756C30
:101E70006C2900D201121A283001F8C20178093009
:101E8000D50108F6021AD72D50434958121A2824B2
:101E900003B405004001E4901E8793121A5C743A63
:101EA000121A5CD203750904021CAD900077EFF0A2
:101EB000900141E4F090013CE0FFEF7051905896A2
:101EC0007407F0905897E4F090589EE4F0905B0708
:101ED000E0FFEF4418FFEFF0905893E4F0905B8838
:101EE000E4F0905B89E4F0905880740AF090588197
:101EF000E4F0905882747AF0905883E4F090588D12
:101F0000E4F0904E017414F0904E147401F09000BF
:101F100077E0FFEF64016003021FE6904E00743823
:101F2000F0904E027404F0904E037406F0904E044C
:101F3000E4F0904E05E4F0904E06743FF0904E08A9
:101F4000E4F0904E09E4F0904E0AE4F09058847466
:101F500050F0905885740EF0905886743EF090586A
:101F600087E4F09058887412F09058897413F090B8
:101F7000588A7444F090588B7448F090588C7401CF
:101F8000F090588EE4F090588FE4F0905890740AD6
:101F9000F09058917443F07F52123D86905894749B
:101FA00058F0905895E4F090589A7405F090589B2A
:101FB0007402F090589C7401F090589DE4F07F00FA
:101FC0001242BA7F337E337D007C009001441218A8
:101FD000617D077F041236927C477D347F04123581
:101FE000F57F0412354C900077E0FFEF6402600348
:101FF0000220C0904E007438F0904E027404F090AD
:102000004E037406F0904E04E4F0904E05E4F09018
:102010004E06743FF0904E08E4F0904E09E4F090C4
:102020004E0AE4F09058847450F09058857427F06C
:10203000905886742CF0905887E4F0905888741269
:10204000F09058897413F090588A7455F090588B1A
:10205000745AF090588C7405F090588E7401F0907A
:10206000588F7411F09058907419F090589174979B
:10207000F07F44123D869058947458F0905895E43F
:10208000F090589A7405F090589B7402F090589C08
:102090007401F090589DE4F07F001242BA7F007EF8
:1020A000FA7D007C009001441218617D077F0412C4
:1020B00036927C477D357F041235F57F0412354C0E
:1020C000900077E0FFEF6403600302219A904E00D6
:1020D0007438F0904E027404F0904E037406F09041
:1020E0004E04E4F0904E05E4F0904E06743FF090FC
:1020F0004E08E4F0904E09E4F0904E0AE4F0905857
:10210000847450F09058857427F0905886742CF0A1
:10211000905887E4F09058887412F090588974139E
:10212000F090588A7455F090588B745AF090588CEF
:102130007405F090588E7401F090588F7411F090DF
:1021400058907419F09058917497F07F44123D861E
:102150009058947458F0905895E4F090589A7405FB
:10216000F090589B7402F090589C7401F090589D28
:10217000E4F07F001242BA7F007EFA7D007C00907E
:1021800001441218617D077F041236927C477D3628
:102190007F041235F57F0412354C900077E0FFEF95
:1021A00064046003022274904E007438F0904E0272
:1021B0007404F0904E037406F0904E04E4F0904ED8
:1021C00005E4F0904E06743FF0904E08E4F0904E17
:1021D00009E4F0904E0AE4F09058847450F090585E
:1021E000857427F0905886742CF0905887E4F0900E
:1021F00058887412F09058897413F090588A745566
:10220000F090588B745AF090588C7405F090588E5A
:102210007401F090588F7411F09058907419F090E8
:1022200058917497F07F44123D869058947458F0FA
:10223000905895E4F090589A7405F090589B740269
:10224000F090589C7401F090589DE4F07F00124289
:10225000BA7F007EFA7D007C009001441218617DF7
:10226000077F041236927C477D377F041235F57F55
:102270000412354C22900077EEF0A3EFF090007935
:10228000ECF0A3EDF090007BEAF0A3EBF07BFF7A9B
:10229000477970C003C002C0017B017A00797DA834
:1022A00001AC02AD03D001D002D0037E007F081242
:1022B0001A02900085E4F0A3E4F0900079E0FEA318
:1022C000E0FF900077E0FCA3E0FDED2FFFEC3EFE89
:1022D00090007BE0FCA3E0FDC3EF9DFFEE9CFE9031
:1022E000007DEEF0A3EFF0900077E0FEA3E0FFC3E7
:1022F000E49FFFE49EFE900079E0FCA3E0FDEF2D5B
:10230000FFEE3CFE90007BE0FCA3E0FDEF2DFFEE36
:102310003CFEC3E49FFFE49EFE90007FEEF0A3EF3F
:10232000F0900077E0FEA3E0FFC3E49FFFE49EFE91
:10233000900079E0FCA3E0FDEF2DFFEE3CFE900065
:102340007BE0FCA3E0FDC3EF9DFFEE9CFE900081CF
:10235000EEF0A3EFF0900079E0FEA3E0FF900077AD
:10236000E0FCA3E0FDED2FFFEC3EFE90007BE0FCE7
:10237000A3E0FDEF2DFFEE3CFEC3E49FFFE49EFED5
:10238000900083EEF0A3EFF0900087E4F0A3E4F078
:10239000900087E0FEA3E0FFC3EF9404EE64809416
:1023A0008040030224E5900087E0FEA3E0FFEF25D4
:1023B000E0FFEE33FE747D2FF58274003EF583E07E
:1023C000FEA3E0FF900085E0FCA3E0FDD3EF9DECD1
:1023D0006480F8EE6480984028900087E0FEA3E0D7
:1023E000FFEF25E0FFEE33FE747D2FF58274003E93
:1023F000F583E0FEA3E0FF900085EEF0A3EFF08010
:1024000067900087E0FEA3E0FFEF25E0FFEE33FEDC
:10241000747D2FF58274003EF583E0FEA3E0FFC3D8
:10242000E49FFFE49EFE900085E0FCA3E0FDD3EF77
:102430009DEC6480F8EE648098402D900087E0FE6B
:10244000A3E0FFEF25E0FFEE33FE747D2FF58274ED
:10245000003EF583E0FEA3E0FFC3E49FFFE49EFEA1
:10246000900085EEF0A3EFF0900087E0FEA3E0FF80
:10247000EF25E0FFEE33FE747D2FF58274003EF50C
:1024800083E0FEA3E0FFC3EF940AEE6480948050E3
:1024900047900087E0FEA3E0FFEF25E0FFEE33FE6C
:1024A000747D2FF58274003EF583E0FEA3E0FFD338
:1024B000EF94F6EE6480947F401E900087E0FEA3C8
:1024C000E0FFEF25E0FFEE33FE747D2FF582740010
:1024D0003EF583E4F0A3E4F0900087E475F0011288
:1024E00016BC022390900085E0FEA3E0FFD3EF949A
:1024F000F4EE6480948150030225E0900085E0FCB6
:10250000A3E0FDEC12135B7B007A0079FA784312AA
:10251000122F900089121861900087E4F0A3E4F074
:10252000900087E0FEA3E0FFC3EF9404EE64809484
:102530008040030225E0900087E0FEA3E0FFEF2546
:10254000E0FFEE33FE747D2FF58274003EF583E0EC
:10255000FCA3E0FDEC12135B9000891218551212D7
:102560002F121394AD07AC06AC06AD07900087E0C0
:10257000FEA3E0FFEF25E0FFEE33FE747D2FF58232
:1025800074003EF583ECF0A3EDF0900087E0FEA32D
:10259000E0FFEF25E0FFEE33FE747D2FF58274003F
:1025A0003EF583E0FEA3E0FFC3EF940CEE6480945D
:1025B0007E5020900087E0FEA3E0FFEF25E0FFEED5
:1025C00033FE747D2FF58274003EF58374FEF0A314
:1025D000740CF0900087E475F0011216BC022520FF
:1025E00090007D740175F0F41216BC90007F7401A8
:1025F00075F0F41216BC900081740175F0F4121697
:10260000BC900083740175F0F41216BC90007DE05C
:10261000FEA3E0FF12435790007FE0FEA3E0FF120D
:1026200042EF900081E0FEA3E0FF12438B90008315
:10263000E0FEA3E0FF12432322C0E0C0F0C083C04D
:1026400082C085C084C086758600C093759300C023
:10265000D075D000C000C001C002C003C004C005D6
:10266000C006C0077BFF7A3E7953C003C002C00199
:102670007B017A00790BA801AC02AD03D001D00236
:10268000D0037E007F11121A029000E3E475F0017E
:102690001216BC9000C9E0FEA3E0FFEF4E700302EB
:1026A000287B9000C9E4F0A3E4F09000CBE0FCA309
:1026B000E0FDEC12135B7B1D7A5A79C4783F12114E
:1026C00026A804A905AA06AB077F007E007D0C7C26
:1026D0004512122F9000E91218619000AD121855A2
:1026E0009000E91218491210317B007A007948787D
:1026F000421211269000DF1218619000E912184969
:102700009000AD1218619000E91218557F817E2467
:102710007DB97C4412122F9000241218619000E7BA
:10272000E0FEA3E0FFEF249CFDEE34FFFCEC12136F
:102730005B7B007A0079E07840121126C004C00566
:10274000C006C0079000241218499000E9121855DD
:10275000121126A804A905AA06AB07D007D006D0F7
:1027600005D00412122F90001C12186190001C1248
:10277000184990001C12185512112690001C1218AE
:10278000551211267B007A007940784012122F9062
:10279000001C1218551210317BED7A2E79657842A3
:1027A0001211269000201218617F007E007D007CAF
:1027B000409000201218551212CC50237F007E004A
:1027C0007D007CC09000201218551212CC60104081
:1027D0000E7F007E007D007C009000201218617F3B
:1027E000007E007D007C009000D11218551212CCA2
:1027F00050107F007E007D007C009000C5121861A3
:1028000080159000201218499000D112185512100E
:10281000359000C51218619000B51218559000C58A
:102820001218491210317B007A007948784212114F
:10283000269000EF1218619000C51218499000B55B
:102840001218619000D51218499000D912186190A1
:1028500000B11218559000D91218491210317B009E
:102860007A00794878421211269000CD12186190B2
:1028700000D91218499000B1121861D007D006D0C3
:1028800005D004D003D002D001D000D0D0D093D056
:1028900086D084D085D082D083D0F0D0E032900032
:1028A00077EFF0900078ECF0A3EDF090007AEAF08A
:1028B000A3EBF0900077E0FFEF1218A228CC0428D9
:1028C000F907292408294F0A0000297A90007CE0A2
:1028D000FFEFD3940F40117B0C7A0179181246AEAA
:1028E00090007DEFF002297F7B0C7A01791C124663
:1028F000AE90007DEFF002297F90007CE0FFEFD3E7
:10290000940F40107B0C7A0179191246AE90007D2D
:10291000EFF0806B7B0C7A01791D1246AE90007D42
:10292000EFF0805B90007CE0FFEFD3940F40107BD2
:102930000C7A01791A1246AE90007DEFF080407B50
:102940000C7A01791E1246AE90007DEFF080309037
:10295000007CE0FFEFD3940F40107B0C7A01791BD1
:102960001246AE90007DEFF080157B0C7A01791F46
:102970001246AE90007DEFF0800590007DE4F0906F
:102980000077E0FFEF603B900077E0FFEF640160CD
:1029900031900077E0FFEF64026027900077E0FF5E
:1029A000EF6403601D900077E0FFEF640560139013
:1029B0000077E0FFEF64066009900077E0FFEFB476
:1029C000090A90007EE4F0A3E4F0801D90007DE011
:1029D000FFEF3395E0FEEF7805C333CE33CED8F961
:1029E000FF90007EEEF0A3EFF090007EE0FEA3E00B
:1029F000FF900078E0FCA3E0FDED2FFFEC3EFE90A1
:102A00000080EEF0A3EFF090007AE0FEA3E0FF90EC
:102A10000080E0FCA3E0FD121919900082121861F9
:102A20007B007A8079007800900082121849121792
:102A300078900080EEF0A3EFF090007CE0FFEFC311
:102A4000940E5037900080E0FEA3E0FF90007CE001
:102A5000FDC3740E9DFDEFA805088005CEC313CEFF
:102A600013D8F9FF900080EEF0A3EFF090007CE027
:102A7000FFEF04FF904E0EEFF08006904E0E740FA5
:102A8000F0900080E0FEA3E0FF904E0CEFF090008D
:102A900080E0FEA3E0FFEEFF7E00904E0DEFF022FF
:102AA000C0E0C0F0C083C082C085C084C086758687
:102AB00000C093759300C0D075D000C000C001C0A5
:102AC00002C003C004C005C006C007123F22900028
:102AD00000EFF09000A7E0FEA3E0FFEF4E600302DE
:102AE0002BAA9000ABE0FEA3E0FFEF8EF01218C817
:102AF0002B0400002B2200012B4000022B79000345
:102B000000002B9F900000E0FFEFB455067E007F91
:102B10000180047E007F009000ABEEF0A3EFF00296
:102B20002C7C900000E0FFEFB4AA067E007F0280BC
:102B3000047E007F009000ABEEF0A3EFF0022C7C4F
:102B4000900000E0FFEFB4550C9000ABE4F0A374EC
:102B500003F0022C7C900000E0FF7E009000A9EEC4
:102B6000F0A3EFF09000ABE4F0A37401F09000A7A5
:102B7000E4F0A37401F0022C7C9000ABE4F0A3E439
:102B8000F0900000E0FFEFB4AA067E007F01800411
:102B90007E007F009000A7EEF0A3EFF0022C7C9067
:102BA00000ABE4F0A3E4F0022C7C9000ABE0FEA3C9
:102BB000E0FF7C007D02121686ED4C7003022C6350
:102BC000900000E0FF7E00EF7F00FE9000A9EE8FF6
:102BD000F01216BC9000ABE0FEA3E0FFEF8EF01207
:102BE00018C82BF600052C0800072C1A00092C2CFD
:102BF000000B00002C729000A9E0FEA3E0FF900003
:102C0000E5EEF0A3EFF0806A9000A9E0FEA3E0FFFC
:102C10009000E7EEF0A3EFF080589000A9E0FEA34B
:102C2000E0FF9000CBEEF0A3EFF080469000A9E02B
:102C3000FEA3E0FF9000EDEEF0A3EFF09000A7E41C
:102C4000F0A3E4F09000AB74FFF0A374FFF09000E9
:102C5000C9E4F0A37401F09000E3E4F0A3E4F08091
:102C600011800F900000E0FF7E009000A9EEF0A31D
:102C7000EFF09000ABE475F0011216BCD007D0065F
:102C8000D005D004D003D002D001D000D0D0D09352
:102C9000D086D084D085D082D083D0F0D0E0327B73
:102CA000007A4679E81246AEEF4405FD7B007A468D
:102CB00079E81246BA750A00E50AC3940A503AAF99
:102CC0000AEF75F005A42438F582E43447F583AFA4
:102CD00082AE838E088F09AE08AF098F828E831271
:102CE0001896AE08AF098F828E83740393FC740428
:102CF00093FD12440D050A80BF7B087A007900120B
:102D0000405D7B017A5079031246AEEF4402FD7BB1
:102D1000017A5079031246BA7B017A507913124630
:102D2000AEEF4402FD7B017A5079131246BA90430C
:102D3000A0E0FFEF4440FF9043A0EFF09043C2E0DB
:102D4000FFEF4410FF9043C2EFF07B087A06795002
:102D5000C003C002C0017B007A5179029000341296
:102D6000188DD001D002D0037F087E00123FC77BB0
:102D7000087A067958C003C002C0017B007A5179F5
:102D80001290003412188DD001D002D0037F087E3B
:102D900000123FC77B087A067960C003C002C001F9
:102DA0007B007A51792290003412188DD001D00224
:102DB000D0037F087E00123FC77B087A067968C07F
:102DC00003C002C0017B007A51793290003412189E
:102DD0008DD001D002D0037F087E00123FC77B0850
:102DE0007A067970C003C002C0017B007A51795223
:102DF00090003412188DD001D002D0037F087E00DD
:102E0000123FC79044F47401F09046ECE0FFEFC32A
:102E100094055006904689743AF090480074F1F099
:102E2000122E6090480074B1F0123C6F7B007A4320
:102E300079A0C003C002C0017B007A4379B0900042
:102E40003412188DD001D002D0037F0E7E00123FC5
:102E5000C79043B0E0FFEF54FDFF9043B0EFF02286
:102E60007E007F2890002CEEF0A3EFF07B007A40EC
:102E700079807F027E007D187C001245C87B007A35
:102E80004079847F177E007D187C001245C87B0046
:102E90007A4079887F177E007D187C001245C87BB8
:102EA000007A40798C7F177E007D187C001245C81F
:102EB0007B007A4079907F177E007D187C00124558
:102EC000C87B007A4079947F177E007D187C0012C1
:102ED00045C87B007A4079987F9B7E007D187C00F6
:102EE0001245C87B007A40799C7F5F7EEA7D197C21
:102EF000001245C87B087A067978C003C002C00179
:102F00007B007A41790090003412188DD001D002F4
:102F1000D0037F047E00123FC79043007402F090FC
:102F200040007408F09042007403F07B0C7A017941
:102F3000081246AE9046A1EFF07B007A4279227DDE
:102F4000087C001246577B007A4279207D517C1024
:102F500012465790002EE4F07F197E007D007C0021
:102F600090002812186190002CE0FEA3E0FF8F82F1
:102F70008E83121849EC4D4E4F604E90002EE0FFAC
:102F8000EF64036044904225E0FFEF5401FF7E00B0
:102F900090002EE0FEEE25E0FEEE4FFFEF5403FF23
:102FA00090002EEFF07FE07E017D007C00123E005D
:102FB0009000281218497BFF7AFF79FF78FF1216DC
:102FC000D2900028121861809D7B007A4079047DA0
:102FD000007C011246579040047407F0904006E4CC
:102FE000F09040087448F0904004E4F09040017480
:102FF00002F090400B7404F09043A2E0FFEF44FF16
:10300000FFEFF09043A1E0FFEF4401FFEFF09043AA
:10301000A0E0FFEF4480FFEFF02290007FE4F0900B
:103020005120E0FFEF5480FFEFF0905122E0FFEFDE
:1030300054F0FF90007FEFF090007FE0FFEF440F2F
:10304000FF905122EFF0905123E0FFEF54F0FF90FA
:10305000007FEFF090007FE0FF905123EFF0905160
:1030600024E0FFEF54F0FF90007FEFF090007FE04E
:10307000FF905124EFF0905120E0FFEF54DFFFEF7D
:10308000F0905120E0FFEF4440FFEFF07F007E0022
:10309000124030905120E0FFEF4410FFEFF07F012D
:1030A0007E00124030905121E0FF90007FEFF090C1
:1030B0005120E0FFEF54EFFFEFF090007FE0FFEFD3
:1030C0005408FF90007FEFF0905120E0FFEF441094
:1030D000FFEFF07F017E00124030905120E0FFEFC3
:1030E00054EFFFEFF090007FE0FFEF709F905120D2
:1030F000E0FFEF54BFFFEFF0905120E0FFEF54806E
:10310000FFEFF0905122E0FFEF54F0FF90007FEFCF
:10311000F090007FE0FF905122EFF0905123E0FF0C
:10312000EF54F0FF90007FEFF090007FE0FFEF445E
:103130000FFF905123EFF0905124E0FFEF54F0FF88
:1031400090007FEFF090007FE0FFEF440FFF905181
:1031500024EFF0224200E500004200E700004200B8
:10316000CB00004200ED00004200E300004200C935
:1031700000004200A700004200A900004200AB008E
:10318000004200DD5F694400D5000000004400D12A
:10319000000000004400E9000000004400D90000E5
:1031A00000004400C5000000004400DF00000000F3
:1031B0004400CD000000004400EF00000000440087
:1031C000AD000000004400B1000000004400B50064
:1031D0000000004400B9000000004400BD000000F1
:1031E000004400C10000000041014F0041014E00B9
:1031F00041014D0041015000410151004101520087
:10320000410153004101540041014300410141008B
:1032100041013C004101420041013B0144013D00AC
:1032200000000044014400003333410155004401D3
:1032300032016E360044012D00005DC0410131189D
:103240004401372EE00000410156FF4301480000D1
:103250000041015700007593007800758346758220
:10326000E8E04401F0009046ECE0F99046FAE0FA1C
:10327000B903225420B40012B8001AEA901FFFF0DC
:103280007401901FFEF09046F6F0901FFEE060057E
:10329000901FFFE0FA90480074C0F0758121900003
:1032A0000078007920E4F0A3D8FCD9FAEA9001363E
:1032B000F0020011750D1F750EFD122C9F0232FBDE
:1032C00002001AE493A3F8E493A34003F68001F20A
:1032D00008DFF48029E493A3F85407240CC8C3330F
:1032E000C4540F4420C8834004F456800146F6DFDE
:1032F000E4800B0102040810204080903154E47EE9
:10330000019360BCA3FF543F30E509541FFEE493D2
:10331000A360010ECF54C025E060A840B8E493A399
:10332000FAE493A3F8E493A3C8C582C8CAC583CAC4
:10333000F0A3C8C582C8CAC583CADFE9DEE780BE7C
:10334000C0E0C0F0C083C082C085C084C0867586DE
:1033500000C093759300C0D075D000C000C001C0FC
:1033600002C003C004C005C006C0071246D09000CA
:1033700008EEF0A3EFF0900008E0FCA3E0FDEC12F3
:10338000135B7B957A967916783D1211267BB67A77
:1033900093799078C31210357B007A0079007840D9
:1033A0001211269000D11218617F007E007D207CD2
:1033B000429000D11218551212CC6010400E7F00BE
:1033C0007E007D207C429000D11218617F01124660
:1033D0001AD007D006D005D004D003D002D001D037
:1033E00000D0D0D093D086D084D085D082D083D066
:1033F000F0D0E0329043AAE0FFEF4401FFEFF090FD
:1034000043AAE0FFEF4410FFEFF09043BAE0FFEF74
:103410004401FFEFF09043BAE0FFEF4410FFEFF0FC
:1034200090013BE0FFEF6401703E9046F8E0FFEF53
:103430004402FFEFF09046F9E0FFEF4402FFEFF0A7
:10344000905891E0FFEF4403FFEFF07F037E0012FE
:1034500040309046F8E0FFEF54FDFFEFF09046F962
:10346000E0FFEF54FDFFEFF0905877E0FFEF4406E8
:10347000FFEFF09043A1E0FFEF4401FFEFF0904336
:10348000B1E0FFEF4401FFEFF09043A2E0FFEF4413
:1034900020FFEFF09043B2E0FFEF4420FFEFF02277
:1034A00002140022EDA2E7D2E7F9EC3340F260F318
:1034B000B4FF08ED547F70E802140AF82481C2E0DA
:1034C000C0E0F40428FAC313FCED92E7FD90007706
:1034D000121861EEA2E7E9BA7F02C3133400940028
:1034E000FA75F091A4E5F013F494FE8AF0A433E5A4
:1034F000F033248CD313FDE492E7FE7F007C3F750C
:103500008302ECC0E0F8EDC0E0F9EEC0E0FAEFC0F5
:10351000E0FB8583F090007712184985F083121242
:103520002FD0E0FBD0E0FAD0E0F9D0E0F81210356F
:10353000ED6480FD30E7011CD583C7ED33CC33F853
:10354000D0E0A2E71328C313CC13FD2290FFFF1293
:1035500018F5EFF090FFFE1218F5850D83850E82A9
:10356000A3A3E0FFEFD3941F5003D38001C34025F2
:10357000850D83850E82A3A3E0FFEFD3941F500A2D
:103580007F017E007D007C0080087F007E007D0042
:103590007C001240D8850D83850E82A3A3E0FFEF47
:1035A000541FFF7E00EF7803CEC313CE13D8F9FF6C
:1035B000EF24C0FFEE3444FE850D83850E82EEF0CD
:1035C000A3EFF0850D83850E82A3A3E0FFEF5407E0
:1035D000FF7401A807088002C333D8FCFF850D8360
:1035E000850E82E0FCA3E0FD8D828C83EFF09000DD
:1035F000031218F522900078EFF0900079ECF0A318
:10360000EDF0900078E0FFEFD3941F5003D38001DA
:10361000C34020900078E0FFEFD3941F500A7F0151
:103620007E007D007C0080087F007E007D007C00A5
:103630001240D8900078E0FFEF541FFF7E00EF2586
:10364000E0FFEE33FEEF2400FFEE3444FEAA06A9AD
:10365000077B0112464A90007BEEF0A3EFF090004A
:1036600078E0FF7E02EF8EF0A4FFAEF0EF2400FFC3
:10367000EE3444FEAA06A9077B01900079E0FEA380
:10368000E0FFAD07AC0612465990007BE0FEA3E0D8
:10369000FF22900078EFF0900079EDF0900079E053
:1036A000FFEFD394075003D38001C34020900079EB
:1036B000E0FFEFD39407500A7F017E007D007C007D
:1036C00080087F007E007D007C001240D89000784A
:1036D000E0FFEFD3941F5003D38001C3402090003C
:1036E00078E0FFEFD3941F500A7F017E007D007CBD
:1036F0000080087F007E007D007C001240D8900092
:1037000079E0FFEF5407FF7E00EF75F020A4FFAED5
:10371000F0900078E0FEEE541FFE74802EF582E4F7
:103720003444F583EFF022C0E0C0F0C083C082C013
:1037300085C084C086758600C093759300C0D0751F
:10374000D000C000C001C002C003C004C005C00654
:10375000C0071246C6900005EEF0A3EFF0900005FA
:10376000E0FCA3E0FDEC12135B7B387A0D79C678A0
:103770003D1211267B317AF8794778C412103590C2
:1037800000D51218617F011245EAD007D006D00596
:10379000D004D003D002D001D000D0D0D093D086B6
:1037A000D084D085D082D083D0F0D0E032904F2426
:1037B000E0FFEF4402FFEFF0904F26E0FFEF548F61
:1037C000FF900077EFF0900077E0FFEF4410FF905C
:1037D0004F26EFF0904F2FE0FFEF54CFFFEFF09028
:1037E0004F2FE0FFEF4430FFEFF0904F2FE0FFEF5F
:1037F00054F0FFEFF0904F2FE0FFEF440FFFEFF09A
:103800007FE77E031242D57FF47E011242EF904F94
:1038100027E4F09043A3E0FFEF4408FFEFF0904F60
:1038200025E0FFEF4401FFEFF022904F0CE0FFEFA7
:103830004402FFEFF0904F0EE0FFEF548FFF900037
:1038400077EFF0900077E0FFEF4410FF904F0EEF1E
:10385000F0904F17E0FFEF54CFFFEFF0904F17E0DD
:10386000FFEF4430FFEFF0904F17E0FFEF54F0FF11
:10387000EFF0904F17E0FFEF440FFFEFF07FE77E90
:10388000031243097FF47E01124323904F0FE4F0AB
:103890009043A3E0FFEF4402FFEFF0904F0DE0FFF5
:1038A000EF4401FFEFF022904F18E0FFEF4402FFDA
:1038B000EFF0904F1AE0FFEF548FFF900077EFF09A
:1038C000900077E0FFEF4410FF904F1AEFF0904F19
:1038D00023E0FFEF54CFFFEFF0904F23E0FFEF44E2
:1038E00030FFEFF0904F23E0FFEF54F0FFEFF09048
:1038F0004F23E0FFEF440FFFEFF07FE77E0312431B
:103900003D7FF47E01124357904F1BE4F09043A398
:10391000E0FFEF4404FFEFF0904F19E0FFEF4401A8
:10392000FFEFF022904F00E0FFEF4402FFEFF09036
:103930004F02E0FFEF548FFF900077EFF090007799
:10394000E0FFEF4410FF904F02EFF0904F0BE0FFCD
:10395000EF54CFFFEFF0904F0BE0FFEF4430FFEF5D
:10396000F0904F0BE0FFEF54F0FFEFF0904F0BE0C3
:10397000FFEF440FFFEFF07FE77E031243717FF408
:103980007E0112438B904F03E4F09043A3E0FFEFDE
:103990004401FFEFF0904F01E0FFEF4401FFEFF033
:1039A000227F287E007D007C00123A1B7F03123CA0
:1039B000267F057E007D007C00123A1B7F03123CAF
:1039C000267F0F7E007D007C00123A1B7F03123C95
:1039D000267F017E007D007C00123A1B7F02123C94
:1039E000267F057E007D007C00123A1B7F06123C7C
:1039F000FE7F0E123CFE7F2C123CFE7F08123CFE26
:103A00007F01123CFE7F0C123CFE7F03123CFE7FC6
:103A1000057E007D007C00123A1B2290FFFC1218EC
:103A2000F51218617F007E807D007C00850D838506
:103A30000E82121855D312182540309001371218F3
:103A400049123E00850D83850E82C083C082121804
:103A500049C3EF9400FFEE9480FEED9400FDEC94DA
:103A600000FCD082D08312186180B990012D121809
:103A700049850D83850E821218551216ED123E00EF
:103A80009000041218F522C0E0C0F0C083C082C0CC
:103A900085C084C086758600C093759300C0D075BC
:103AA000D000C000C001C002C003C004C005C006F1
:103AB000C007123EE99000DDEEF0A3EFF0D007D092
:103AC00006D005D004D003D002D001D000D0D0D091
:103AD00093D086D084D085D082D083D0F0D0E0320D
:103AE000900077EFF0900078EDF0900077E0FFEF36
:103AF0001218A23B03003B10013B1D023B2A0300AE
:103B0000003B36900078E0FFEF2480FF123CFE225D
:103B1000900078E0FFEF24C0FF123CFE2290007876
:103B2000E0FFEF2494FF123CFE22900078E0FFEFCC
:103B300024D4FF123CFE2290007EEFF012301A9047
:103B40005120E0FFEF4420FFEFF0905120E0FFEF25
:103B500054BFFFEFF0905120E0FFEF54F0FFEFF083
:103B6000905120C083C082E0FF90007EE0FEEE44D2
:103B700010FEEF4EFFD082D083EFF07F017E001267
:103B80004030905120E0FFEF54EFFFEFF022900023
:103B90007712188D90007A7401F090007712186DEA
:103BA0001215C7FF90007BEFF090007BE0FFEF6005
:103BB0002A90007BE0FF123DC990007712186D90AB
:103BC000007AE0FFE92FF9E43AFA1215C7FF9000F6
:103BD0007BEFF090007AE004F080CE2290007AEF44
:103BE000F090007AE0FFEFC39402503990007AE041
:103BF000FFEF25E0246AF582E43447F583E493FE81
:103C0000740193FF8F828E83C083C082E0FF900097
:103C10007AE0FEEE90476E93FEEEF4FEEF5EFFD08C
:103C200082D083EFF02290007BEFF0905120E0FFF4
:103C3000EF549FFFEFF0905120E0FFEF54F0FFEFC3
:103C4000F0905120C083C082E0FF90007BE0FEEE48
:103C50004410FEEF4EFFD082D083EFF07F017E0054
:103C6000124030905120E0FFEF54EFFFEFF0227B45
:103C70000C7A0179CF1246AE900028EFF090002820
:103C8000E0FFEF5407FF90586EEFF0900028E0FF40
:103C9000EFC4540FFFEF540FFF90586FEFF09051A7
:103CA0005D7402F0905B007402F0905B587402F057
:103CB0009058767444F022900079EFF0900079E00B
:103CC000FFEFC394025036900079E0FFEF25E02427
:103CD0006AF582E43447F583E493FE740193FF8F21
:103CE000828E83C083C082E0FF900079E0FEEE9078
:103CF000476E93FEEF4EFFD082D083EFF02290000C
:103D000079EFF0900079E0FFEFC4540FFF90007A54
:103D1000EFF012301A90007AE0FFEF540FFF90009E
:103D20007AEFF090007AE0FF123C26900079E0FFF5
:103D3000EF540FFF90007AEFF090007AE0FF123C12
:103D40002622C2D5E830E70FB2D5E4C39BFBE49A44
:103D5000FAE499F9E498F8EC30E717B2D5123D7817
:103D6000121778E4C39BFBE49AFAE499F9E498F813
:103D7000800312177830D50DE4C39FFFE49EFEE464
:103D80009DFDE49CFC22900078EFF09046F8E0FF67
:103D9000EF4403FFEFF09046F9E0FFEF4403FFEF3D
:103DA000F0900078E0FF905892EFF07F037E0012D1
:103DB00040309046F8E0FFEF54FCFFEFF09046F9FA
:103DC000E0FFEF54FCFFEFF02290007CEFF01230A8
:103DD0001A90007CE0FFEFC4540FFF90007DEFF0DD
:103DE00090007DE0FF123B3790007CE0FFEF540F26
:103DF000FF90007DEFF090007DE0FF123B37223214
:103E0000EC4D4E700D78FCEF24E950032840FD2264
:103E100000007BF178DA0000EF28FF78FFEE38FE33
:103E2000ED38FDEC38FC50E7EF2BFFEE38FEED38B7
:103E3000FDEC38FC40F22205020304783A20252BE1
:103E4000322E3266202000793A20252B322E32661F
:103E50002020000000000000000000000000000022
:103E60000000000000000000000000000000000052
:103E700000000000007F0F7E271243A57F0F7E27E2
:103E80001243BF124554900077EFF090649BE0FF1F
:103E9000EF4410FFEFF0900077E0FF124426124647
:103EA0007E7F00123F5B12462A7F021245FA227F74
:103EB0000F7E271243D97F0F7E271243F3124554FA
:103EC000900077EFF0906499E0FFEF4410FFEFF07F
:103ED000900077E0FF1244261246967F00123F9131
:103EE0001246397F0212460A22904E11E0FF7E00F0
:103EF000900003EEF0A3EFF0900003E0FEA3E0FFDC
:103F0000EF7F00FE904E10E0FD7C00EE4CFEEF4D8A
:103F1000FF900003EEF0A3EFF0900003E0FEA3E0BB
:103F2000FF22900001E4F0906568E0FF900002EF4E
:103F3000F0900002E0FFEF30E51B906548E0FF9055
:103F40000001EFF0900002E0FFEF541EFFEF60056C
:103F5000900001E4F0900001E0FF22900078EFF083
:103F6000900078E0FFEF5403FF900078EFF090644A
:103F70007BE0FFEF54FCFFEFF090647BC083C082D6
:103F8000E0FF900078E0FEEF4EFFD082D083EFF0AC
:103F900022900078EFF0900078E0FFEF5403FF905C
:103FA0000078EFF0906579E0FFEF54FCFFEFF090C0
:103FB0006579C083C082E0FF900078E0FEEF4EFF9D
:103FC000D082D083EFF022758600EF4E6027EF603D
:103FD000010E759300900034E0F595A3E0F585A3FC
:103FE000E0F5848B938A838982E0A30586F0A3158C
:103FF00086DFF6DEF4E4F593F59522124554900041
:1040000077EFF090659AE0FFEF4420FFEFF09065C6
:1040100098E0FFEF4410FFEFF09043A2E0FFEF4481
:1040200040FFEFF0900077E0FF1244262232323258
:10403000EEFA900131E0F88FF0A4FFAEF0E88AF0DC
:10404000A42EFEE5F03400FDEF24C9FF78FFEE3822
:10405000FEED38FDE438FC5003023E0022ACEAAD30
:10406000A08B938A838982E0F96017A3E0F5EAA325
:10407000E0F5A0A3E060F4FAA3E0F8A3E0F2DAF838
:10408000D9E98DA08CEAE4F59322900079E4F090D0
:104090000079E0FFEFC394025010900079E0FF1226
:1040A0003BDC900079E004F080E590015674FFF06D
:1040B00022EFB40A07740D1240BC740A309811A89C
:1040C00099B8130CC2983098FDA899C298B811F607
:1040D0003099FDC299F5992290FFFF1218F5EFF083
:1040E000850D83850E82E0FF850D83850E82EFF0BE
:1040F0009046EA7401F09000011218F5227F011237
:104100001EAB7F101241A87F101241C990007C7431
:1041100010F07B007A807D587C8E7F0212289E22D0
:104120009043A3E0FFEF4408FFEFF09043B3E0FFBC
:10413000EF4408FFEFF0904F24E0FFEF4401FFEF62
:10414000F0229043A3E0FFEF4402FFEFF09043B36F
:10415000E0FFEF4402FFEFF0904F0CE0FFEF44016F
:10416000FFEFF0229043A3E0FFEF4404FFEFF09055
:1041700043B3E0FFEF4404FFEFF0904F18E0FFEF90
:104180004401FFEFF0229043A3E0FFEF4401FFEF73
:10419000F09043B3E0FFEF4401FFEFF0904F00E0F9
:1041A000FFEF4401FFEFF022900077EFF090410223
:1041B000C083C082E0FF900077E0FEEE54F8FEEF8F
:1041C0004EFFD082D083EFF022900077EFF0904046
:1041D00096C083C082E0FF900077E0FEEE54F8FEC8
:1041E000EF4EFFD082D083EFF022900077EEF0A365
:1041F000EFF07B027A447902900077E0FEA3E0FFC3
:10420000AD07AC0612465922900077EEF0A3EFF00E
:104210007B027A447906900077E0FEA3E0FFAD07C9
:10422000AC0612465922900077EEF0A3EFF07B0225
:104230007A44793A900077E0FEA3E0FFAD07AC0640
:1042400012465922900077EEF0A3EFF07B027A44F9
:104250007900900077E0FEA3E0FFAD07AC061246C0
:104260005922900077EEF0A3EFF07B027A447904B4
:10427000900077E0FEA3E0FFAD07AC06124659229E
:104280007FF47E011243577FF47E011242EF7FF4E8
:104290007E0112438B7FF47E011243232290013C66
:1042A000E0FFEF7011900142E0FFEF70031240FD5C
:1042B00090013C7401F01233F422900078EFF01278
:1042C000408A900078E0FF123CB7900078E0FF90C1
:1042D0000156EFF022900078EEF0A3EFF07B027A27
:1042E0004F7928900078E0FCA3E0FD124659229017
:1042F000008DEEF0A3EFF07B027A4F792A90008DCB
:10430000E0FCA3E0FD12465922900078EEF0A3EF06
:10431000F07B027A4F7910900078E0FCA3E0FD1268
:1043200046592290008DEEF0A3EFF07B027A4F7990
:104330001290008DE0FCA3E0FD1246592290007817
:10434000EEF0A3EFF07B027A4F791C900078E0FC4E
:10435000A3E0FD1246592290008DEEF0A3EFF07B12
:10436000027A4F791E90008DE0FCA3E0FD124659C1
:1043700022900078EEF0A3EFF07B027A4F79049060
:104380000078E0FCA3E0FD1246592290008DEEF08B
:10439000A3EFF07B027A4F790690008DE0FCA3E05A
:1043A000FD12465922900078EEF0A3EFF07B027ADE
:1043B00064792A900078E0FCA3E0FD12465922902F
:1043C0000078EEF0A3EFF07B027A64790A9000782F
:1043D000E0FCA3E0FD12465922900078EEF0A3EF36
:1043E000F07B027A647928900078E0FCA3E0FD126B
:1043F000465922900078EEF0A3EFF07B027A6479C0
:1044000008900078E0FCA3E0FD12465922EC4D60D4
:1044100011ED60010C8B938A838982E4F0A3DDFCAB
:10442000DCFA75930022EF54016004D2AF8002C21F
:10443000AFEF5402FF9044F4E054FD4FF02290009F
:1044400077EFF0900077E0FFEFC43354E0FF904443
:1044500081EFF022900077EFF0900077E0FFEFC45B
:104460003354E0FF904483EFF022900077EFF09018
:104470000077E0FFEFC43354E0FF90449DEFF0225B
:10448000900077EFF0900077E0FFEFC43354E0FF47
:10449000904480EFF022900077EFF0900077E0FFFB
:1044A000EFC43354E0FF904482EFF02290014FE0DC
:1044B000FFEF70091237AD90014F7401F0124120E7
:1044C0002290014DE0FFEF70091239A190014D7467
:1044D00001F012466622900150E0FFEF7009123899
:1044E0002A9001507401F012414222900151E0FFE4
:1044F000EF70091238A79001517401F01241642243
:10450000900152E0FFEF70091239249001527401BA
:10451000F012418622900153E0FFEF7009123E75C0
:104520009001537401F012467222900154E0FFEFA3
:104530007009123EAF9001547401F012468A229025
:104540000155E0FFEF70091247209001557401F00A
:10455000123FFB229044F4E0F84402F0E85402FFDA
:1045600010AF012274014FFF221246E17E3D7FFF12
:104570001241EA7F0712443E1246DA221246EF7ECB
:10458000407F2D1242087F071244541246E822123F
:1045900046FD7E407F2E1242267F0712446A124655
:1045A000F62212470B7E407F2F1242447F071244AF
:1045B00080124704221247197E477F331242627FDE
:1045C00007124496124712228B938A838982EFF056
:1045D000A3EEF0A3EDF0759300221244EB1244AC6D
:1045E0001245001244D612428022900007EFF0904C
:1045F0000007E0FF90657BEFF022900078EFF090ED
:104600000078E0FF90648BEFF022900078EFF0905C
:104610000078E0FF906489EFF02290000AEFF090BC
:10462000000AE0FF90647AEFF0221247277E00EF45
:1046300030E3051246C680F22212472D7E00EF308D
:10464000E3051246D080F2228B938A838982E0FFB1
:10465000A3E0FE759300228B938A838982EDF0A3F9
:10466000ECF0759300227F0C123CFE90014E740119
:10467000F02290647BE0FFEF4480FFEFF022906433
:104680007BE0FFEF4410FFEFF022906579E0FFEF51
:104690004480FFEFF022906579E0FFEF4410FFEFD8
:1046A000F022904E00E0FFEF4401FFEFF0228B93E9
:1046B0008A838982E0759300FF228B938A838982A3
:1046C000EDF0759300227B027A64794A12464A2201
:1046D0007B027A64794812464A229044C07402F000
:1046E000229044C87402F0229044C07408F02290D2
:1046F00044C87408F0229044C37420F0229044CB44
:104700007420F0229044C07401F0229044C87401D7
:10471000F0229044C07404F0229044C87404F02243
:104720009065887420F02290646BE0FF22906469A9
:10473000E0FF223232323232004F0000300051406E
:10474000001000516000100051C000100051F00036
:1047500010010000100001140008000140000A00D0
:10476000014C00020001500000205B035B0340404D
:08477000000000000000000041
:00000001FF
